:020000040000FA
:0600000042EF6AF012005D
:020006001200E6
:08000800F2A402D013EF68F02E
:10001000F2A202D03AEF69F0F0A002D052EF69F0FC
:0A0020001200F28EF28CF18412003F
:06002A000C000CD50000E3
:1000300064000000010000000AD500007E0E0000F0
:100040000200000000D50000530E00000A0000006E
:10005000FCD40000720E000004000000FAD400007E
:100060007C0E000002000000EAD40000EC0C00004E
:1000700010000000E9D4000063000000010000004F
:10008000E7D400007A0E000002000000DFD4000078
:100090005D0E000008000000D2D40000530F0000E5
:1000A0000D000000D0D40000780E00000200000017
:0C00B000CED40000760E0000020000001C
:0400BC00D9CFE6FFB3
:1000C000E1CFD9FFFE0EDB500E017A5D01E144D095
:1000D000FE0E0E017A5D1CE01C0EE66EE66AB00EA6
:1000E000E66E0C0EE66E0E017A511C0DF3CF14F085
:1000F000F4CF15F0000E1426030E152214C0E6FFEF
:1001000015C0E6FF81EC66F0166E060EE15E165035
:10011000FE0EDBCF7AFEFE0EDB50FE0801E11CD0A6
:100120001C0EE66EE66AFE0EDB501C0DF3CF14F0DB
:10013000F4CF15F0000E1426030E152214C0E6FFAE
:1001400015C0E6FFB00EE66E0C0EE66E81EC66F0B2
:10015000166E060EE15E1650E552E7CFD9FF12008B
:100160000E017A510E017B5D01E15AD0FE0E0E01A7
:100170007B5D37E0270EE66EE66A010EE66E890EBD
:10018000E66E0C0EE66E0E017B511C0DF3CFE9FFFF
:10019000F4CFEAFF000EE926030EEA221B0EE92641
:1001A000000EEA22EF50E66E0E017B511C0DF3CFDC
:1001B000E9FFF4CFEAFF000EE926030EEA22EECFB4
:1001C00014F0EFCF15F0270E145E000E155A14C070
:1001D000E6FF15C0E6FF37EC2FF0166E080EE15E65
:1001E00016507ACE7BFE270EE66EE66ACBCCE6FF93
:1001F000B0CC14F0B1CC15F0270E145E000E155AD9
:1002000014C0E6FF15C0E6FF010EE66E890EE66E2D
:100210000C0EE66E37EC2FF0166E080EE15E1650EF
:100220001200D9CFE6FFE1CFD9FF0B0EE126C00EB9
:10023000F36E090EF3CFDBFF100EF36E0A0EF3CF51
:10024000DBFF0C018751881112E169EC49F006C00F
:1002500087FC07C088FCFF0E0C018717070E0C01F6
:100260008817000E0C018727040E0C0188233C0E12
:10027000E66EE66AE66AC40EE66E040EE66ECFEC43
:1002800066F0146E050EE15E1450010EDB6ADF6A43
:10029000DF50146E156A090E145C000E155801E348
:1002A000CDD0DFCFE6FF0ADFE552DF50060DF3CFFA
:1002B000F6FFF4CFF7FFF60EF626D30EF722F62A56
:1002C000000EF7220800080EF5CFDBFFDF50060D09
:1002D000F3CFF6FFF4CFF7FFF60EF626D30EF72294
:1002E000020EF626000EF7220900020EF5CFDBFF04
:1002F0000A00030EF5CFDBFFDF50060DF3CFF6FF4C
:10030000F4CFF7FFF60EF626D30EF722040EF626EC
:10031000000EF7220900040EF5CFDBFF0A00050EE0
:10032000F5CFDBFF080EDB5001E043D0090EDBCF39
:1003300008F00A0EDBCF09F0060E08C0DBFF070E3F
:1003400009C0DBFF020EDBCF16F0030EDBCF17F088
:10035000270E1626000E1722010E1626000E172253
:10036000040EDB501624146E050EDB501720156E9C
:10037000010E1426000E1522D950090FE96EDACFAE
:10038000EAFF1450EE261550ED22090EDBCF14F0D3
:100390000A0EDBCF15F0166A176AD880FC0E1454CB
:1003A0001F0E1554000E1654000E175401E2EDD71F
:1003B00001D0FFD7080EDBCFCBFC060EDBCFB0FCA5
:1003C000070EDBCFB1FC270E0C01B027000E0C018D
:1003D000B123020EDB500C01B0250C01B26F030EED
:1003E000DB500C01B1210C01B36F010E0C01B227DF
:1003F000000E0C01B323040EDB500C01B2250C01DE
:10040000B46F050EDB500C01B3210C01B56F0C016C
:100410000D0EC66F0C01C797A3DEDF50060DF3CF9C
:10042000F6FFF4CFF7FFF60EF626D30EF7220800FC
:10043000F5CFAFFC15EC21F0DF2A2AD70B0EE15CDB
:1004400002E2E16AE552E16EE552E7CFD9FF120020
:10045000D9CFE6FFE1CFD9FFE652DF6ADF50146E55
:10046000156A090E145C000E155801E3E3D0DFCFC6
:10047000E6FF24DEE5520D0E0C01C65D01E0D8D08A
:100480006FDEF70EDB500C01AF5D01E0D1D00C0147
:10049000180EAC6F020EAD6FFA0EDB5012E1F80EC3
:1004A000DBCF99FCF90EDBCF9AFC0C01C7870C015E
:1004B000040EC66FF80EDBCFC9FCF90EDBCFCAFC09
:1004C000B5D00C01000E875D040E885907E30C01BE
:1004D000880ED8808755130E885504E20C01876B6F
:1004E000040E886F0C0187CC99FC88CC9AFC872B72
:1004F000000E8823F80EDBCF97FCF90EDBCF98FCBB
:100500007AEC67F006C0BEFC07C0BFFC08C0C0FCA8
:1005100009C0C1FC0C01C789FA0EDB50040A3BE09C
:10052000070A01E083D0FB0EDBCF18F0FC0EDBCF17
:1005300019F0FD0EDB501824166EFE0EDB5019204C
:10054000176EF80EDB501624146EF90EDB501720D0
:10055000156E14500C0199190C01C96F15500C013E
:100560009A190C01CA6FFB0EDBCF9FFCFC0EDBCF90
:10057000A0FCFD0EDBCFA1FCFE0EDBCFA2FC0C012C
:10058000AE6B0C01270E896F8A6B8B6B8C6B0C0129
:10059000020EC66F4BD0FB0EDBCFE9FFFC0EDBCFAC
:1005A000EAFF020EE926000EEA22EECF18F0EFCFA6
:1005B00019F0FB0EDBCFE9FFFC0EDBCFEAFF185092
:1005C000EE24166E1950EE20176EF80EDB5016242E
:1005D000146EF90EDB501720156E14500C0199198A
:1005E0000C01C96F15500C019A190C01CA6F0A0E43
:1005F000E66EE66AFB0EDBCFE6FFFC0EDBCFE6FF26
:100600009F0EE66E0C0EE66E81EC66F0146E060E22
:10061000E15E14500C01050EC66F010EE66E020E6F
:10062000E66EA6EC18F0E552E55200D0DF5004D09B
:10063000DF2A14D7FE0E00D0E552E552E7CFD9FFEE
:100640001200D9CFE6FFE1CFD9FFFE0EDB50146ECA
:10065000156A090E145C000E155802E3010E0ED047
:10066000FE0EDBCFE6FF2ADDE5520C01C8A904D05F
:100670000C01C899010E02D0000E00D0E552E7CF60
:10068000D9FF1200D9CFE6FFE1CFD9FFFE0EDB5034
:10069000146E156A090E145C000E155802E3000E64
:1006A0000DD0FE0EDBCFE6FF09DDE552070E0C0193
:1006B000C65D02E0000E01D0010E00D0E552E7CF8A
:1006C000D9FF1200D9CFE6FFE1CFD9FFFE0EDB50F4
:1006D000146E156A090E145C000E155801E369D0FA
:1006E000FE0EDBCFE6FFEADCE552BACCBCFCBBCCAD
:1006F000BDFC0C01C651080A52E0010A50E0050A8F
:100700004EE0020A48E0050A2BE00D0A0EE0010A5D
:100710000CE0070A07E0020A05E0010A03E0060A06
:1007200001E03DD015EC21F044D0010EE66E110E33
:10073000E66EA6EC18F0E552E5520C019B519C11B7
:1007400001E10AD00C0195510C01B61904E10C012C
:1007500096510C01B719E9E10C01080EC66F29D0BA
:10076000010EE66E110EE66EA6EC18F0E552E552AB
:100770000C019B519C1101E10AD00C0195510C0117
:10078000B61904E10C0196510C01B719E9E10C010D
:100790000C0EC66F0ED00C010D0EC66F0AD0E66AA5
:1007A000140EE66EA6EC18F0E552E55215EC21F0B9
:1007B00000D0E552E7CFD9FF1200D9CFE6FFE1CF55
:1007C000D9FFFE0EDB50146E156A090E145C000E84
:1007D000155801E30CD0FE0EDBCFE6FF6FDCE552CF
:1007E0000C01C797FE0EDBCFE6FF6CDFE552E5524A
:1007F000E7CFD9FF1200D9CFE6FFE1CFD9FFFE0E38
:10080000DB50146E156A090E145C000E155803E3D4
:10081000F36AF46A24D0FE0EDBCFE6FF4FDCE5522C
:100820009FDC0A0EE66EE66A9F0EE66E0C0EE66E22
:10083000CC0EE66E0C0EE66E81EC66F0146E060EC3
:10084000E15E145097CCD6FC98CCD7FCCC0E146E3D
:100850000C0E156E14C0F3FF15C0F4FF00D0E55266
:10086000E7CFD9FF1200D9CFE6FFE1CFD9FFFE0EC7
:10087000DB50146E156A090E145C000E155801E366
:1008800018D0FE0EDBCFE6FF19DCE55269DC0C0167
:1008900095510C01B61904E10C0196510C01B719E0
:1008A00008E0010EE66E100EE66EA6EC18F0E552BA
:1008B000E552E552E7CFD9FF1200D9CFE6FFE1CFED
:1008C000D9FFE652FE0EDB50146E156A090E145C59
:1008D000000E155803E3F36AF46A4CD0FE0EDBCF2A
:1008E000E6FF5EEC00F0E552C6CCDFFF070EDF5CF2
:1008F00006E00B0EDF5C03E0F36AF46A3BD00C0108
:10090000B8510C01B65D0C01B9510C01B75921E386
:100910000C01B0510C01B25D166EB3510C01B15512
:10092000176E1606000E175A0C01B8510C01B65D71
:10093000186EB7510C01B955196E1850165C146E2B
:1009400019501758156E14C0F3FF15C0F4FF12D0DC
:1009500011D00C01B6510C01B85D146EB9510C01E7
:10096000B755156E1406000E155A14C0F3FF15C0C6
:10097000F4FF00D0E552E552E7CFD9FF1200D9CFFE
:10098000E6FFE1CFD9FF020EE126FE0EDB50146E2A
:10099000156A090E145C000E155802E3000E9AD079
:1009A000FE0EDBCFE6FF5EEC00F0E552FE0EDBCF85
:1009B000E6FF83DFE552F3CFDEFFF4CFDDFFD9CFD3
:1009C000E9FFDACFEAFFEE50ED1003E1000E82D02E
:1009D0000ED0D9CFE9FFDACFEAFF010EEE1801E120
:1009E000ED5005E1FE0EDBCFE6FF3DDFE5520C01E9
:1009F0000C01C851010B1CE1DECF14F0DDCF15F066
:100A00000C01B0510C01B25D166EB3510C01B15521
:100A1000176ED890173216321450165C15501758AE
:100A200007E3FE0EDBCFE6FF1EDFE5520C01C881B7
:100A3000010EE66EE66A010EE66ED950FD0FE66E17
:100A4000FF0EDA20E66ECBCCE6FFB6CCE6FFB7CCE5
:100A5000E6FF37EC2FF0146E080EE15E14500C0127
:100A6000B62B000EB7230C01B2510C01B65D0C0180
:100A7000B3510C01B75904E3B0CCB6FCB1CCB7FC10
:100A8000D9CFE9FFDACFEAFF010EEE1801E1ED5010
:100A900006E1FE0EDBCFE6FFE6DEE55219D00C01E3
:100AA000C7BB16D00C01C78BA1EC67F006C014F0D1
:100AB00007C015F0166A176A060E1426000E1522D6
:100AC000000E1622000E172214C0C2FC15C0C3FC73
:100AD000010E00D0146E020EE15C02E2E16AE55202
:100AE000E16E1450E552E7CFD9FF1200D9CFE6FFEF
:100AF000E1CFD9FF060EE126040EDB6A050EDB6AA4
:100B0000FE0EDB50146E156A090E145C000E1558AB
:100B100003E3F36AF46A1DD1FE0EDBCFE6FF5EEC61
:100B200000F0E552FE0EDBCFE6FFC7DEE552020E17
:100B3000F3CFDBFF030EF4CFDBFFD950020FE96EDA
:100B4000DACFEAFFEE50ED1008E1FE0EDBCFE6FF54
:100B50008ADEE552F36AF46AFCD0020EDBCFDEFFD8
:100B6000DBCFDDFF020EDBCF14F0030EDBCF15F081
:100B7000FA0EDBCF16F0FB0EDBCF17F01450165C2D
:100B80001550175805E2FA0EDBCFDEFFDBCFDDFF95
:100B90000C010C01C851010B1EE1020EDBCF14F059
:100BA000030EDBCF15F00C01B0510C01B25D166ED7
:100BB000B3510C01B155176ED8901732163214503C
:100BC000165C1550175807E3FE0EDBCFE6FF4BDE31
:100BD000E5520C01C881DE500C01B6250001146EEF
:100BE000DD500C01B7210001156E0C01B251145CEF
:100BF000B35115584BE30C01B6510C01B25D146EA4
:100C0000B3510C01B755156E040E14C0DBFF050E71
:100C100015C0DBFF040EDBCFE6FF050EDBCFE6FFE2
:100C2000010EE66EFC0EDBCFE6FFFD0EDBCFE6FF2E
:100C3000CBCCE6FFB6CCE6FFB7CCE6FF37EC2FF027
:100C4000146E080EE15E1450040EDBCF14F0050E96
:100C5000DBCF15F0D950FC0FE96EFF0EDA20EA6EFB
:100C60001450EE261550ED22040EDBCF14F0050EC5
:100C7000DBCF15F0D9CFE9FFDACFEAFF1450EE5EF3
:100C80001550ED5AB0CCB6FCB1CCB7FCDECFE6FFC8
:100C9000DDCFE6FF010EE66EFC0EDBCFE6FFFD0EBC
:100CA000DBCFE6FFCBCCE6FFB6CCE6FFB7CCE6FF6A
:100CB00037EC2FF0146E080EE15E1450D9CFE9FF27
:100CC000DACFEAFFEE500C01B627EE500C01B72345
:100CD000020EDBCF14F0030EDBCF15F0FA0EDBCFE4
:100CE00016F0FB0EDBCF17F01450165C155017589A
:100CF00006E3FE0EDBCFE6FFB6DDE55219D00C01B0
:100D0000C7BB16D00C01C78BA1EC67F006C014F06E
:100D100007C015F0166A176A060E1426000E152273
:100D2000000E1622000E172214C0C2FC15C0C3FC10
:100D3000040EDBCF16F0050EDBCF17F0DE501624C5
:100D4000146EDD501720156E14C0F3FF15C0F4FFAC
:100D500000D0060EE15C02E2E16AE552E16EE55286
:100D6000E7CFD9FF1200D9CFE6FFE1CFD9FF060EBA
:100D7000E126040EDB6A050EDB6AFE0EDB50146E04
:100D8000156A090E145C000E155803E3F36AF46A41
:100D900019D1FE0EDBCFE6FF5EEC00F0E552FE0E51
:100DA000DBCFE6FF8ADDE552020EF3CFDBFF030E59
:100DB000F4CFDBFFD950020FE96EDACFEAFFEE5035
:100DC000ED1008E1FE0EDBCFE6FF4DDDE552F36AE4
:100DD000F46AF8D00C010C01C851010B1EE1020E9F
:100DE000DBCF14F0030EDBCF15F00C01B0510C017A
:100DF000B25D166EB3510C01B155176ED890173213
:100E000016321450165C1550175807E3FE0EDBCF50
:100E1000E6FF29DDE5520C01C881020EDBCFDEFFC3
:100E2000DBCFDDFF020EDBCF14F0030EDBCF15F0BE
:100E3000FA0EDBCF16F0FB0EDBCF17F01450165C6A
:100E40001550175805E2FA0EDBCFDEFFDBCFDDFFD2
:100E5000DE500C01B6250001146EDD500C01B721E7
:100E60000001156E0C01B251145CB351155849E3E1
:100E70000C01B6510C01B25D146EB3510C01B755A3
:100E8000156E040E14C0DBFF050E15C0DBFF040E4B
:100E9000DBCFE6FF050EDBCFE6FFFC0EDBCFE6FF88
:100EA000FD0EDBCFE6FFCBCCE6FFB6CCE6FFB7CC42
:100EB000E6FFDCEC2FF0146E070EE15E1450040E1A
:100EC000DBCF14F0050EDBCF15F0D950FC0FE96E27
:100ED000FF0EDA20EA6E1450EE261550ED22040EB5
:100EE000DBCF14F0050EDBCF15F0D9CFE9FFDACF59
:100EF000EAFF1450EE5E1550ED5AB0CCB6FCB1CC02
:100F0000B7FCDECFE6FFDDCFE6FFFC0EDBCFE6FF72
:100F1000FD0EDBCFE6FFCBCCE6FFB6CCE6FFB7CCD1
:100F2000E6FFDCEC2FF0146E070EE15E1450D9CF13
:100F3000E9FFDACFEAFFEE500C01B627EE500C01C4
:100F4000B723020EDBCF14F0030EDBCF15F0FA0E41
:100F5000DBCF16F0FB0EDBCF17F01450165C1550EC
:100F6000175806E3FE0EDBCFE6FF7DDCE55219D015
:100F70000C01C7BB16D00C01C78BA1EC67F006C0F3
:100F800014F007C015F0166A176A060E1426000E34
:100F90001522000E1622000E172214C0C2FC15C026
:100FA000C3FC040EDBCF16F0050EDBCF17F0DE50CE
:100FB0001624146EDD501720156E14C0F3FF15C0F3
:100FC000F4FF00D0060EE15C02E2E16AE552E16E58
:100FD000E552E7CFD9FF1200D9CFE6FFE1CFD9FF25
:100FE000FC0EDBCF16F0FD0EDBCF17F016C0E6FFD0
:100FF00017C0E6FFFC0EDBCFE6FFFD0EDBCFE6FF02
:10100000E9EC66F0E552E552F3CF18F0F4CF19F0B1
:1010100018C0E6FF19C0E6FFFC0EDBCFE6FFFD0EB1
:10102000DBCFE6FFFE0EDBCFE6FF60DD1A6E050EBE
:10103000E15E1A50E552E7CF17F0E552E7CF16F020
:101040001650F324146E1750F420156E14C0F3FFDD
:1010500015C0F4FF00D0E552E7CFD9FF1200D9CF79
:10106000E6FFE1CFD9FFFC0EDBCF16F0FD0EDBCFA4
:1010700017F016C0E6FF17C0E6FFFC0EDBCF1AF034
:10108000FD0EDBCF1BF01C6A1AC0E6FF1BC0E6FF9B
:101090001CC0E6FFF7EC66F0E552E552E55207C0EA
:1010A00018F008C019F018C0E6FF19C0E6FFFC0EE2
:1010B000DBCFE6FFFD0EDBCFE6FFFE0EDBCFE6FF6C
:1010C00052DE1D6E050EE15E1D50E552E7CF17F0B2
:1010D000E552E7CF16F01650F324146E1750F420A3
:1010E000156E14C0F3FF15C0F4FF00D0E552E7CF32
:1010F000D9FF1200D9CFE6FFE1CFD9FF040EE126D8
:10110000FE0EDB50146E156A090E145C000E1558A5
:1011100003E3F36AF46A33D0FE0EDBCFE6FF5EEC46
:1011200000F0E5520C01B0510C01B25D146EB351E8
:101130000C01B155156E1406000E155A020E14C09E
:10114000DBFF030E15C0DBFFFE0EDBCFE6FF5DEC21
:1011500004F0E552F3CFDEFFF4CFDDFF020EDBCF6C
:1011600016F0030EDBCF17F0DE50165C146EDD5068
:101170001758156E14C0F3FF15C0F4FF00D0040E0D
:10118000E15C02E2E16AE552E16EE552E7CFD9FFA8
:101190001200D9CFE6FFE1CFD9FFFE0EDBCFE6FF8D
:1011A0001ED8E552F3CF14F0F4CF15F014501510FB
:1011B00012E0FE0EDBCFE6FF5EEC00F0E552BACCAB
:1011C000BCFCBBCCBDFC010EE66E100EE66EA6ECC0
:1011D00018F0E552E552E552E7CFD9FF1200D9CF1A
:1011E000E6FFE1CFD9FFFE0EDB50146E156A090E43
:1011F000145C000E155803E3F36AF46A3FD0FE0E48
:10120000DBCFE6FF5EEC00F0E5520C01BC510C01B7
:10121000BA5D0C01BD510C01BB590FE30C01BC516F
:101220000C01BA5D146EBB510C01BD55156E14C096
:10123000F3FF15C0F4FF22D021D00C01BC510C01EA
:10124000B45D166EB5510C01BD55176E010E162614
:10125000000E17220C01B2510C01BA5D186EBB5181
:101260000C01B355196E16501824146E175019201E
:10127000156E14C0F3FF15C0F4FF00D0E552E7CFA0
:10128000D9FF1200D9CFE6FFE1CFD9FF020EE12648
:10129000FE0EDBCFE6FFA3DFE552F3CFDEFFF4CF98
:1012A000DDFFD9CFE9FFDACFEAFFEE50ED1002E122
:1012B000000E5ED0FE0EDBCFE6FF5EEC00F0E552E6
:1012C000D950FC0FE96EFF0EDA20EA6EEE50ED10F9
:1012D00017E0010EE66EE66ACBCCE6FFBCCCE6FF7B
:1012E000BDCCE6FF010EE66EFC0EDBCFE6FFFD0E89
:1012F000DBCFE6FF37EC2FF0146E080EE15E1450E2
:101300000C01BC2B000EBD230C01BC510C01B45DC3
:101310000C01BD510C01B55904E2B2CCBCFCB3CCFC
:10132000BDFCD9CFE9FFDACFEAFF010EEE1801E1EB
:10133000ED5003E10C01C88519D00C01C7BB16D0D4
:101340000C01C78BA1EC67F006C014F007C015F0C4
:10135000166A176A1F0E1426000E1522000E16229A
:10136000000E172214C0C2FC15C0C3FC010E00D031
:10137000146E020EE15C02E2E16AE552E16E145085
:10138000E552E7CFD9FF1200D9CFE6FFE1CFD9FF71
:10139000040EE126020EDB6A030EDB6AFE0EDBCFD3
:1013A000E6FF1DDFE552F3CFDEFFF4CFDDFFD9CF3F
:1013B000E9FFDACFEAFFEE50ED1003E1F36AF46AD9
:1013C00008D1FE0EDBCFE6FF5EEC00F0E552FA0E30
:1013D000DBCF14F0FB0EDBCF15F0DECF16F0DDCF48
:1013E00017F01450165C155017580AE2D9CFE9FFD0
:1013F000DACFEAFFFA0EEECFDBFFFB0EEDCFDBFF1D
:10140000FA0EDB500C01BC250001146EFB0EDB5004
:101410000C01BD210001156E0C011450B45D155076
:10142000B5595AE20C01BC510C01B45D146EB551B2
:101430000C01BD55156E010E1426000E1522020E6C
:1014400014C0DBFF030E15C0DBFFD950FC0FE96EA3
:10145000FF0EDA20EA6EEE50ED102AE0020EDBCF2E
:10146000E6FF030EDBCFE6FFCBCCE6FFBCCCE6FF0E
:10147000BDCCE6FF010EE66EFC0EDBCFE6FFFD0EF7
:10148000DBCFE6FF37EC2FF0146E080EE15E145050
:10149000020EDBCF14F0030EDBCF15F0D950FC0F9A
:1014A000E96EFF0EDA20EA6E1450EE261550ED229A
:1014B000020EDBCF14F0030EDBCF15F0D950FA0F7C
:1014C000E96EFF0EDA20EA6E1450EE5E1550ED5A0A
:1014D000B2CCBCFCB3CCBDFCD950FC0FE96EFF0E06
:1014E000DA20EA6EEE50ED101AE0FA0EDBCFE6FFDE
:1014F000FB0EDBCFE6FFCBCCE6FFBCCCE6FFBDCCE2
:10150000E6FF010EE66EFC0EDBCFE6FFFD0EDBCF45
:10151000E6FF37EC2FF0146E080EE15E1450FA0E61
:10152000DBCF08F0FB0EDBCF09F008500C01BC2725
:1015300009500C01BD23020EDBCF14F0030EDBCFEC
:1015400015F0D950FA0FE96EFF0EDA20EA6E14504A
:10155000EE261550ED22DECF16F0DDCF17F0FA0E95
:10156000DB50165C146EFB0EDB501758156EFA0E2E
:10157000DBCF18F0FB0EDBCF19F01450185C1550C0
:10158000195803E30C01C88519D00C01C7BB16D04C
:101590000C01C78BA1EC67F006C014F007C015F072
:1015A000166A176A1F0E1426000E1522000E162248
:1015B000000E172214C0C2FC15C0C3FCFA0EDBCF0C
:1015C00014F0FB0EDBCF15F014C0F3FF15C0F4FFD1
:1015D00000D0040EE15C02E2E16AE552E16EE55200
:1015E000E7CFD9FF1200D9CFE6FFE1CFD9FF040E34
:1015F000E126FE0EDB50146E156A090E145C000E17
:10160000155803E3F36AF46A2FD0FE0EDBCFE6FF32
:101610005EEC00F0E5520C01B2510C01B45D146EA9
:10162000B5510C01B355156E020E14C0DBFF030E4D
:1016300015C0DBFFFE0EDBCFE6FFD1DDE552F3CFB9
:10164000DEFFF4CFDDFF020EDBCF16F0030EDBCFA3
:1016500017F0DE50165C146EDD501758156E14C06E
:10166000F3FF15C0F4FF00D0040EE15C02E2E16A72
:10167000E552E16EE552E7CFD9FF1200D9CFE6FF80
:10168000E1CFD9FF060EE126FE0EDB50146E156A7F
:10169000090E145C000E155809E2D950FA0FE96ED4
:1016A000FF0EDA20EA6EEE50ED1003E1F36AF46A01
:1016B00001D1FE0EDBCFE6FF5EEC00F0E552FE0E40
:1016C000DBCFE6FF8CDDE552020EF3CFDBFF030E2E
:1016D000F4CFDBFFFA0EDBCF16F0FB0EDBCF17F0FB
:1016E000F80EDB501624146EF90EDB501720156E21
:1016F000020EDBCF18F0030EDBCF19F01450185C8C
:101700001550195814E2020EDBCF16F0030EDBCF92
:1017100017F0F80EDB50165C146EF90EDB501758FC
:10172000156EFA0E14C0DBFFFB0E15C0DBFFF80EC2
:10173000DB500C01BC250001146EF90EDB500C01CE
:10174000BD210001156E14C0DEFF15C0DDFFDECF28
:1017500014F0DDCF15F00C011450B45D1550B559DF
:1017600015E20C01B2510C01B45D146EB5510C01BF
:10177000B355156E010E1426000E1522D9CFE9FFC0
:10178000DACFEAFF1450EE5E1550ED5A0C01DE5030
:10179000B45D146EDD50B559156E010E1426000EA1
:1017A0001522040E14C0DBFF050E15C0DBFFFA0E78
:1017B000DBCF14F0FB0EDBCF15F0040EDBCF16F001
:1017C000050EDBCF17F01450165C155017581BE3AD
:1017D000FA0EDBCFE6FFFB0EDBCFE6FFCBCCE6FF5E
:1017E000DECFE6FFDDCFE6FF010EE66EFC0EDBCFBF
:1017F000E6FFFD0EDBCFE6FF37EC2FF0146E080E90
:10180000E15E14504CD0040EDBCFE6FF050EDBCFBB
:10181000E6FFCBCCE6FFDECFE6FFDDCFE6FF010E35
:10182000E66EFC0EDBCFE6FFFD0EDBCFE6FF37EC0E
:101830002FF0146E080EE15E1450FA0EDBCF16F096
:10184000FB0EDBCF17F0040EDB50165C146E050E9A
:10185000DB501758156E14C0E6FF15C0E6FFCBCC61
:10186000E6FFB2CCE6FFB3CCE6FF010EE66E040E57
:10187000DBCF1AF0050EDBCF1BF0FC0EDB501A2479
:10188000186EFD0EDB501B20196E18C0E6FF19C044
:10189000E6FF37EC2FF01C6E080EE15E1C50FA0ECE
:1018A000DBCF14F0FB0EDBCF15F014C0F3FF15C037
:1018B000F4FF00D0060EE15C02E2E16AE552E16E5F
:1018C000E552E7CFD9FF1200D9CFE6FFE1CFD9FF2C
:1018D000E652FC0EDBCFE6FFFD0EDBCFE6FF010E8E
:1018E000E66EE66AD9CFE6FFDACFE6FFFE0EDBCF83
:1018F000E6FFC4DE146E070EE15E1450DF5000D028
:10190000E552E552E7CFD9FF1200D9CFE6FFE1CF8C
:10191000D9FF300EE126FE0EDB50146E156A090E5B
:10192000145C000E155809E2D950FA0FE96EFF0E4B
:10193000DA20EA6EEE50ED1003E1F36AF46AFBD2AE
:10194000FE0EDBCFE6FF5EEC00F0E552FE0EDBCFD5
:10195000E6FF45DCE552F3CF16F0F4CF17F0F80EB2
:10196000DB50165C146EF90EDB501758156E020E24
:1019700014C0DBFF030E15C0DBFF020EDBCF14F03B
:10198000030EDBCF15F0FA0EDBCF16F0FB0EDBCF2C
:1019900017F01650145C1750155803E2F368F468FA
:1019A000CAD2D950F60FE96EFF0EDA20EA6EEE5079
:1019B000ED101DE0020EDBCF14F0030EDBCF15F0AF
:1019C000F60EDBCF16F0F70EDBCF17F01450165CD7
:1019D000155017580CE2F60EDBCF08F0F70EDBCFF0
:1019E00009F0020E08C0DBFF030E09C0DBFFF80E92
:1019F000DB500C01BC250001146EF90EDB500C010C
:101A0000BD210001156E060E14C0DBFF070E15C0C8
:101A1000DBFF060EDBCF14F0070EDBCF15F00C0159
:101A20001450B45D1550B55916E20C01B2510C01B9
:101A3000B45D146EB5510C01B355156E010E14262C
:101A4000000E1522D950060FE96EDACFEAFF1450C6
:101A5000EE5E1550ED5A060EDBCFDEFFDBCFDDFF6D
:101A6000060EDB500C01B45D0001146E070EDB5056
:101A70000C01B5590001156E010E1426000E152239
:101A8000040E14C0DBFF050E15C0DBFFF80EDBCF24
:101A900008F0F90EDBCF09F0060E08C0DBFF070ED9
:101AA00009C0DBFFFA0EDBCF08F0FB0EDBCF09F03D
:101AB000080E08C0DBFF090E09C0DBFFFC0EDBCF00
:101AC00008F0FD0EDBCF09F00A0E08C0DBFF0B0E9D
:101AD00009C0DBFFFC0EDBCFE9FFDB2AFD0EDBCF0D
:101AE000EAFF01E3DB2A0D0EEFCFDBFF0F0EDB6A0F
:101AF000F50EDB5016E0610EF36E0D0EDBCFF4FF3A
:101B0000F350F45C0EE30D0EDB507A080AE3E00EAE
:101B1000146E0D0EDBCFE7FF1450E7260D0EE7CF56
:101B2000DBFF200EF36E0E0EF3CFDBFF0E0EDBCFCE
:101B300014F0040EDBCF15F0050EDBCF16F01450B9
:101B4000155C000E165806E2040EDB50E76E0E0E12
:101B5000E7CFDBFF0E0EDBCF14F0020EDBCF15F06C
:101B6000030EDBCF16F01450155C000E165806E27B
:101B7000020EDB50E76E0E0EE7CFDBFF0E0EDBCF63
:101B8000E6FFE66ACBCCE6FFDECFE6FFDDCFE6FF81
:101B9000010EE66ED950100FE66E000EDA20E66EEA
:101BA00037EC2FF0146E080EE15E14500E0EDB5071
:101BB000DE26000EDD220E0EDB50146E156AD950A3
:101BC000040FE96EDACFEAFF1450EE5E1550ED5ABD
:101BD000D950040FE96EDACFEAFFEE50ED1008E1BC
:101BE000B2CCDEFFB3CCDDFF040EDB68050EDB6894
:101BF000F50EDB5001E1E8D00C0EDB6A0E0EDB5077
:101C0000F36E0C0EDBCFF4FFF350F45C01E3DBD09A
:101C1000D950100F156EDACF16F00C0EDB500F01F5
:101C20001524E96E000E1620EA6EEFCF14F0610E57
:101C3000145C21E3D950100F176EDACF18F00C0E98
:101C4000DB500F011724E96E000E1820EA6EEF50EA
:101C50007A0811E3E00E166ED950100F146EDACF29
:101C600015F00C0EDB500F011424E96E000E152048
:101C7000EA6E1650EF26D950100F146EDACF15F019
:101C80000C0EDB500F011424E96E000E1520EA6ED5
:101C9000EF50F36E0D0EDB50F35C53E1FA0EDB06F2
:101CA000DBCF14F0FB0E01E2DB06DBCF15F01450A6
:101CB00015101FE1060EDBCF18F0070EDBCF19F071
:101CC000080EDB50185C166E090EDB501958176EA3
:101CD0000C0EDB5000011624146E000E1720156E3A
:101CE000010E1426000E152214C0F3FF15C0F4FFD8
:101CF00022D1FC0EDBCFE9FFDB2AFD0EDBCFEAFFB2
:101D000001E3DB2A0D0EEFCFDBFF010EF36E0F0EAA
:101D1000F3CFDBFF610EF36E0D0EDBCFF4FFF3505C
:101D2000F45C0EE30D0EDB507A080AE3E00E146E4D
:101D30000D0EDBCFE7FF1450E7260D0EE7CFDBFFDC
:101D40003FD0080EDBCF08F0090EDBCF09F0FA0E0A
:101D500008C0DBFFFB0E09C0DBFF0F0EDB5030E0DD
:101D60000A0EDBCF08F00B0EDBCF09F0FC0E08C02B
:101D7000DBFFFD0E09C0DBFFFC0EDBCFE9FFDB2A3A
:101D8000FD0EDBCFEAFF01E3DB2A0D0EEFCFDBFF19
:101D9000610EF36E0D0EDBCFF4FFF350F45C0EE337
:101DA0000D0EDB507A080AE3E00E146E0D0EDBCF49
:101DB000E7FF1450E7260D0EE7CFDBFF0F0EDB6ABF
:101DC0000C0EDB2A1BD788D00C0EDB6A0E0EDB5004
:101DD000F36E0C0EDBCFF4FFF350F45C01E37CD028
:101DE000D950100F146EDACF15F00C0EDB500F0126
:101DF0001424E96E000E1520EA6EEF50F36E0D0EFE
:101E0000DB50F35C3DE1FA0EDB06DBCF14F0FB0E9A
:101E100001E2DB06DBCF15F0145015101FE1060EB2
:101E2000DBCF18F0070EDBCF19F0080EDB50185C83
:101E3000166E090EDB501958176E0C0EDB500001A0
:101E40001624146E000E1720156E010E1426000EB7
:101E5000152214C0F3FF15C0F4FF6DD0FC0EDBCFCC
:101E6000E9FFDB2AFD0EDBCFEAFF01E3DB2A0D0EE3
:101E7000EFCFDBFF010EF36E0F0EF3CFDBFF29D0A8
:101E8000080EDBCF08F0090EDBCF09F0FA0E08C010
:101E9000DBFFFB0E09C0DBFF0F0EDB501AE00A0E62
:101EA000DBCF08F00B0EDBCF09F0FC0E08C0DBFF28
:101EB000FD0E09C0DBFFFC0EDBCFE9FFDB2AFD0EC8
:101EC000DBCFEAFF01E3DB2A0D0EEFCFDBFF0F0EC6
:101ED000DB6A0C0EDB2A7AD70E0EDB50146E156A05
:101EE000D950020FE96EDACFEAFF1450EE5E1550BA
:101EF000ED5A020EDBCF14F0030EDBCF15F0FA0E15
:101F0000DBCF16F0FB0EDBCF17F01650145C17502A
:101F1000155803E2F368F4680ED00E0EDB50146E11
:101F2000156AD950060FE96EDACFEAFF1450EE2693
:101F30001550ED22F6D5300EE15C02E2E16AE55281
:101F4000E16EE552E7CFD9FF1200D9CFE6FFE1CF2E
:101F5000D9FF300EE126FE0EDB50146E156A090E15
:101F6000145C000E155809E2D950FA0FE96EFF0E05
:101F7000DA20EA6EEE50ED1003E1F36AF46A01D361
:101F8000FE0EDBCFE6FF5EEC00F0E552FE0EDBCF8F
:101F9000E6FFEFEC08F0E552F3CF16F0F4CF17F0C0
:101FA000F80EDB50165C146EF90EDB501758156EE8
:101FB000020E14C0DBFF030E15C0DBFF020EDBCFE9
:101FC00014F0030EDBCF15F0FA0EDBCF16F0FB0E8C
:101FD000DBCF17F01650145C1750155803E2F36866
:101FE000F468CFD2D950F60FE96EFF0EDA20EA6E10
:101FF000EE50ED101DE0020EDBCF14F0030EDBCF30
:1020000015F0F60EDBCF16F0F70EDBCF17F01450FD
:10201000165C155017580CE2F60EDBCF08F0F70EE1
:10202000DBCF09F0020E08C0DBFF030E09C0DBFFA7
:10203000F80EDB500C01BC250001146EF90EDB50CC
:102040000C01BD210001156E060E14C0DBFF070E4A
:1020500015C0DBFF060EDBCF14F0070EDBCF15F04B
:102060000C011450B45D1550B55916E20C01B25173
:102070000C01B45D146EB5510C01B355156E010E13
:102080001426000E1522D950060FE96EDACFEAFFAA
:102090001450EE5E1550ED5A060EDBCFDEFFDBCF9F
:1020A000DDFF060EDB500C01B45D0001146E070E5F
:1020B000DB500C01B5590001156E010E1426000EFF
:1020C0001522040E14C0DBFF050E15C0DBFFF80E51
:1020D000DBCF08F0F90EDBCF09F0060E08C0DBFFFE
:1020E000070E09C0DBFFFA0EDBCF08F0FB0EDBCFDB
:1020F00009F0080E08C0DBFF090E09C0DBFFFC0E6B
:10210000DBCF08F0FD0EDBCF09F00A0E08C0DBFFC5
:102110000B0E09C0DBFFFC0EDBCFF6FFDB2AFD0E4A
:10212000DBCFF7FF01E3DB2A08000D0EF5CFDBFF65
:102130000F0EDB6AF50EDB5016E0610EF36E0D0E2E
:10214000DBCFF4FFF350F45C0EE30D0EDB507A08A6
:102150000AE3E00E146E0D0EDBCFE7FF1450E72606
:102160000D0EE7CFDBFF200EF36E0E0EF3CFDBFF7D
:102170000E0EDBCF14F0040EDBCF15F0050EDBCF17
:1021800016F01450155C000E165806E2040EDB50D3
:10219000E76E0E0EE7CFDBFF0E0EDBCF14F0020E64
:1021A000DBCF15F0030EDBCF16F01450155C000EDC
:1021B000165806E2020EDB50E76E0E0EE7CFDBFF8D
:1021C0000E0EDBCFE6FFE66ACBCCE6FFDECFE6FF06
:1021D000DDCFE6FF010EE66ED950100FE66E000E61
:1021E000DA20E66E37EC2FF0146E080EE15E145024
:1021F0000E0EDB50DE26000EDD220E0EDB50146EBE
:10220000156AD950040FE96EDACFEAFF1450EE5E7A
:102210001550ED5AD950040FE96EDACFEAFFEE50AF
:10222000ED1008E1B2CCDEFFB3CCDDFF040EDB68BD
:10223000050EDB68F50EDB5001E1EAD00C0EDB6A1F
:102240000E0EDB50F36E0C0EDBCFF4FFF350F45C9C
:1022500001E3DDD0D950100F156EDACF16F00C0E59
:10226000DB500F011524E96E000E1620EA6EEFCF49
:1022700014F0610E145C21E3D950100F176EDACF01
:1022800018F00C0EDB500F011724E96E000E182019
:10229000EA6EEF507A0811E3E00E166ED950100F77
:1022A000146EDACF15F00C0EDB500F011424E96E1A
:1022B000000E1520EA6E1650EF26D950100F146E3E
:1022C000DACF15F00C0EDB500F011424E96E000E6E
:1022D0001520EA6EEF50F36E0D0EDB50F35C54E107
:1022E000FA0EDB06DBCF14F0FB0E01E2DB06DBCFE0
:1022F00015F0145015101FE1060EDBCF18F0070E75
:10230000DBCF19F0080EDB50185C166E090EDB509F
:102310001958176E0C0EDB5000011624146E000EB7
:102320001720156E010E1426000E152214C0F3FF9F
:1023300015C0F4FF26D1FC0EDBCFF6FFDB2AFD0E25
:10234000DBCFF7FF01E3DB2A08000D0EF5CFDBFF43
:10235000010EF36E0F0EF3CFDBFF610EF36E0D0E69
:10236000DBCFF4FFF350F45C0EE30D0EDB507A0884
:102370000AE3E00E146E0D0EDBCFE7FF1450E726E4
:102380000D0EE7CFDBFF40D0080EDBCF08F0090EC3
:10239000DBCF09F0FA0E08C0DBFFFB0E09C0DBFF44
:1023A0000F0EDB5031E00A0EDBCF08F00B0EDBCF57
:1023B00009F0FC0E08C0DBFFFD0E09C0DBFFFC0EC0
:1023C000DBCFF6FFDB2AFD0EDBCFF7FF01E3DB2AD5
:1023D00008000D0EF5CFDBFF610EF36E0D0EDBCFA7
:1023E000F4FFF350F45C0EE30D0EDB507A080AE3C1
:1023F000E00E146E0D0EDBCFE7FF1450E7260D0E36
:10240000E7CFDBFF0F0EDB6A0C0EDB2A19D78AD071
:102410000C0EDB6A0E0EDB50F36E0C0EDBCFF4FFFE
:10242000F350F45C01E37ED0D950100F146EDACF74
:1024300015F00C0EDB500F011424E96E000E152070
:10244000EA6EEF50F36E0D0EDB50F35C3EE1FA0ED8
:10245000DB06DBCF14F0FB0E01E2DB06DBCF15F071
:10246000145015101FE1060EDBCF18F0070EDBCF5E
:1024700019F0080EDB50185C166E090EDB50195867
:10248000176E0C0EDB5000011624146E000E172080
:10249000156E010E1426000E152214C0F3FF15C090
:1024A000F4FF6FD0FC0EDBCFF6FFDB2AFD0EDBCF97
:1024B000F7FF01E3DB2A08000D0EF5CFDBFF010E6D
:1024C000F36E0F0EF3CFDBFF2AD0080EDBCF08F040
:1024D000090EDBCF09F0FA0E08C0DBFFFB0E09C0C6
:1024E000DBFF0F0EDB501BE00A0EDBCF08F00B0EFC
:1024F000DBCF09F0FC0E08C0DBFFFD0E09C0DBFFDF
:10250000FC0EDBCFF6FFDB2AFD0EDBCFF7FF01E38E
:10251000DB2A08000D0EF5CFDBFF0F0EDB6A0C0E79
:10252000DB2A78D70E0EDB50146E156AD950020FD5
:10253000E96EDACFEAFF1450EE5E1550ED5A020E46
:10254000DBCF14F0030EDBCF15F0FA0EDBCF16F065
:10255000FB0EDBCF17F01650145C1750155803E232
:10256000F368F4680ED00E0EDB50146E156AD95065
:10257000060FE96EDACFEAFF1450EE261550ED2271
:10258000F2D5300EE15C02E2E16AE552E16EE5521D
:10259000E7CFD9FF1200D9CFE6FFE1CFD9FFF80E80
:1025A000DBCFE6FFF90EDBCFE6FFFA0EDBCFE6FF6F
:1025B000FB0EDBCFE6FFFC0EDBCFE6FF010EE66E87
:1025C000E66AD950FD0FE66EFF0EDA20E66EFE0ECB
:1025D000DBCFE6FF85EC0CF0146E0A0EE15E1450C2
:1025E00000D0E552E7CFD9FF1200D9CFE6FFE1CF07
:1025F000D9FF060EE126DF6ADF50146E156A090E58
:10260000145C000E155801E3C8D3DFCFE6FF5EEC83
:1026100000F0E552030EDB6A010EDB6A020EDB6A94
:102620000C010C01C851020B05E10C010C01C85151
:10263000040B12E0F8EC51F000090EE0100EF36EFE
:10264000030EF3CFDBFF0C01C851040B01E0010EB8
:10265000E76E010EE7CFDBFF0C01C7AB15D0A1EC95
:1026600067F00C010650C25D146E0750C359156E19
:10267000153404E214500008000E155405E3100E42
:10268000F36E030EF3CFDBFF0C01C7AD15D0A1EC49
:1026900067F00C010650C45D146E0750C559156EE5
:1026A000153404E214500008000E155405E3100E12
:1026B000F36E030EF3CFDBFF0B0E0C01C65D18E1CA
:1026C000A1EC67F00C010650C45D146E0750C559AB
:1026D000156E153404E214500008000E155408E37A
:1026E000110EF36E030EF3CFDBFF0C010C0EC66F61
:1026F000040E0C01C65D01E04BD1040EDB6A050E31
:10270000DB6A040EDBCF14F0050EDBCF15F0030EF1
:10271000145C000E155801E33BD1040EDBCFE9FF3A
:10272000050EDBCFEAFF140EEA02F3CFEAFF140E28
:10273000E902F3CFE9FFF450EA26C40EE926040EBD
:10274000EA22100EE926000EEA22EE50ED1001E119
:102750001FD1040EDBCFE9FF050EDBCFEAFF140E1D
:10276000EA02F3CFEAFF140EE902F3CFE9FFF450D7
:10277000EA26C40EE926040EEA22100EE926000E0F
:10278000EA22EECF14F0EFCF15F00C01C951141866
:1027900002E1CA51151801E0F5D0B0EC00F00A0EC4
:1027A000E66EE66A040EDBCFE9FF050EDBCFEAFF3B
:1027B000140EEA02F3CFEAFF140EE902F3CFE9FFA9
:1027C000F450EA26C40EE926040EEA22E9CF14F0FA
:1027D000EACF15F014C0E6FF15C0E6FF9F0EE66EC7
:1027E0000C0EE66E81EC66F0166E060EE15E16507B
:1027F000040EDBCFE9FF050EDBCFEAFF140EEA0281
:10280000F3CFEAFF140EE902F3CFE9FFF450EA2612
:10281000C40EE926040EEA220A0EE926000EEA2278
:10282000EECF97FCEDCF98FC040EDBCFE9FF050E51
:10283000DBCFEAFF140EEA02F3CFEAFF140EE9023F
:10284000F3CFE9FFF450EA26C40EE926040EEA228B
:102850000C0EE926000EEA22EECF91FCEECF92FCA0
:10286000EECF93FCEFCF94FC0C01912B000E0C01EA
:102870009223000E0C019323000E0C0194230C01F3
:102880000C01A1510C019F25166E0C010C01A251E7
:102890000C01A021176E16500C019725146E1750CD
:1028A0000C019821156E14500C0199190C01C96F77
:1028B00015500C019A190C01CA6F120EF36E030E1B
:1028C000F3CFDBFF0C01060EC66F040EDBCF14F056
:1028D000050EDBCF15F0020ED8801456000E1556EB
:1028E000140E1502F3CF15F0140E1402F3CF14F0EA
:1028F000F450152614C0E6FF15C0E6FF010EE66E83
:10290000010EE76E040EDBCF16F0050EDBCF17F0DD
:10291000E7501626000E1722140E1702F3CF17F0F9
:10292000140E1602F3CF16F0F4501726C40E162616
:10293000040E172216C0E6FF17C0E6FF010EE66E72
:10294000040EDBCF18F0050EDBCF19F0140E1902C0
:10295000F3CF19F0140E1802F3CF18F0F450192623
:10296000C40E1826040E192218C0E6FF19C0E6FF8F
:1029700037EC2FF01A6E080EE15E1A500401FC6B62
:10298000FD6B06D0040EDB2A050E01E3DB2AB9D667
:10299000030EDB500DE0010EDB5002E0000E01D013
:1029A000010EE66E030EDBCFE6FFD0DBE552E5520B
:1029B0000C01C7B95AD0070E0C01C65D55E17AEC7F
:1029C00067F00C01BE51065C146E0C01BF51075834
:1029D000156E0C01C0510858166E0C01C1510958F2
:1029E000176E0001800E171401E0D5D10C01C751FC
:1029F000070B06081AE10C01C751080B01E0010E94
:102A0000E76E030EE7CFDBFFDFCFE6FF62EC03F0FC
:102A1000E552DFCFE6FF62EC03F0E552030EDB5038
:102A200003E10C010E0EC66FB6D1B0EC00F0020E41
:102A3000E66E100EE66E8ADBE552E5527AEC67F040
:102A400006C0BEFC07C0BFFC08C0C0FC09C0C1FC7A
:102A5000740E0C01BE27350E0C01BF23060E0C01AF
:102A6000C023000E0C01C12396D17AEC67F00C0153
:102A7000BE51065C146E0C01BF510758156E0C0157
:102A8000C0510858166E0C01C1510958176E00014B
:102A9000800E171401E07FD1B0EC00F00C01C6519C
:102AA0000C0A01E1EED0060A01E1D3D0030A01E1EC
:102AB000C5D0010A01E1AAD00F0A01E191D00C0AA8
:102AC00001E18ED00D0A6BE0030A51E0060A15E021
:102AD000010A01E0EED0A1EC67F006C0C2FC07C01D
:102AE000C3FC9F0EE66E0C0EE66E31EC5AF0E5521A
:102AF000E5520C01030EC66FDDD0A30EE66E0C0E80
:102B0000E66E9F0EE66E0C0EE66EA5EC5AF0E552F0
:102B1000E552E552E55200091FE1A1EC67F00C0116
:102B2000C251065C146EC3510758156E0C01145047
:102B3000895D15508A590FE2060E0C01AE5D08E260
:102B40000C01AE2B0C01D89089378A378B378C3724
:102B50000C01020EC66FAED0020EF36E030EF3CF61
:102B6000DBFF010EDB6A0C01050EC66FA3D0020E5F
:102B7000F36E030EF3CFDBFFDE52010EDD6E040EAB
:102B80000C01AE5D0BE30C01040EAE6F0C01200EC8
:102B9000896FEF0E8A6F090E8B6F8C6B8BD0020ED4
:102BA0000C01AE5D09E2120EF36E030EF3CFDBFFF4
:102BB000DE52010EDD6E13D00C01C7A70BD0140E30
:102BC000F36E030EF3CFDBFF010EF36E020EF3CFB5
:102BD000DBFF05D0020EF36E030EF3CFDBFF6AD0EE
:102BE000050E0C01AE5D09E2100EF36E030EF3CF7D
:102BF000DBFFDE52010EDD6E08D00C01080EC66F41
:102C0000110EF36E030EF3CFDBFF54D0050E0C0153
:102C1000AE5D09E2110EF36E030EF3CFDBFFDE5261
:102C2000010EDD6E0AD0140EF36E030EF3CFDBFF40
:102C3000010EF36E020EF3CFDBFF3CD0140EF36EE9
:102C4000030EF3CFDBFF010EF36E020EF3CFDBFFBB
:102C500031D0050E0C01AE5D09E2100EF36E030ECD
:102C6000F3CFDBFFDE52010EDD6E0AD0140EF36EE1
:102C7000030EF3CFDBFF010EF36E020EF3CFDBFF8B
:102C800019D0050E0C01AE5D09E2110EF36E030EB4
:102C9000F3CFDBFFDE52010EDD6E0AD0140EF36EB1
:102CA000030EF3CFDBFF010EF36E020EF3CFDBFF5B
:102CB00001D000D0030EDB5069E0010EDB505EE076
:102CC0000C01AE2B0C01D89089378A378B378C37A3
:102CD0000C01B8510C01955D146E96510C01B9555B
:102CE000156E040E14C0DBFF050E15C0DBFF0C01D2
:102CF000B8510C01955D0C01B9510C01965912E2C5
:102D00000C01B0510C01B25D146EB3510C01B15500
:102D1000156ED950040FE96EDACFEAFF1450EE2693
:102D20001550ED22040EDBCF14F0050EDBCF15F0AD
:102D3000166A176A14500C018D5F15500C018E5BDA
:102D400016500C018F5B17500C01905B040EDBCF0B
:102D500008F0050EDBCF09F008500C019B27095045
:102D60000C019C23B8CC95FCB9CC96FCE66A030E0A
:102D7000DBCFE6FFEBD9E552E55208D0010EE66E57
:102D8000030EDBCFE6FFE2D9E552E552020EDB503F
:102D900002E015EC21F0DF2A2FD4040EDB6A050EC9
:102DA000DB6A040EDBCF14F0050EDBCF15F0030E4B
:102DB000145C000E155801E3B7D0040EDBCFE9FF19
:102DC000050EDBCFEAFF140EEA02F3CFEAFF140E82
:102DD000E902F3CFE9FFF450EA26C40EE926040E17
:102DE000EA22100EE926000EEA22EE50ED1001E173
:102DF0009BD0040EDBCFE9FF050EDBCFEAFF140EFC
:102E0000EA02F3CFEAFF140EE902F3CFE9FFF45030
:102E1000EA26C40EE926040EEA22120EE926000E66
:102E2000EA22EECF16F0EFCF17F016C0E6FF17C07C
:102E3000E6FFA1EC67F0E552E7CF17F0E552E7CFE8
:102E400016F01650065C146E17500758156EDC0EFF
:102E5000D8801454010E155461E2040EDBCF14F037
:102E6000050EDBCF15F0020ED8801456000E155655
:102E7000140E1502F3CF15F0140E1402F3CF14F054
:102E8000F450152614C0E6FF15C0E6FF010EE66EED
:102E9000010EE76E040EDBCF16F0050EDBCF17F048
:102EA000E7501626000E1722140E1702F3CF17F064
:102EB000140E1602F3CF16F0F4501726C40E162681
:102EC000040E172216C0E6FF17C0E6FF010EE66EDD
:102ED000040EDBCF18F0050EDBCF19F0140E19022B
:102EE000F3CF19F0140E1802F3CF18F0F45019268E
:102EF000C40E1826040E192218C0E6FF19C0E6FFFA
:102F000037EC2FF01A6E080EE15E1A500401FC6BCC
:102F1000FD6B040EDB06050E01E2DB06040EDB2A68
:102F2000050E01E3DB2A3DD7060EE15C02E2E16A11
:102F3000E552E16EE552E7CFD9FF1200D9CFE6FFA7
:102F4000E1CFD9FF250EE126FD0EDBCFE9FFFE0E16
:102F5000DBCFEAFF140EEECFDBFF150EEECFDBFF6B
:102F6000160EEECFDBFF170EEECFDBFFFB0EDBCF37
:102F7000E9FFFC0EDBCFEAFF180EEECFDBFF190EE8
:102F8000EECFDBFF1A0EEECFDBFF1B0EEECFDBFF2B
:102F90001C0EDB6A060EF36E1D0EF3CFDBFFF90E7F
:102FA000DBCF08F0FA0EDBCF09F01E0E08C0DBFF06
:102FB0001F0E09C0DBFF1E0EDBCFE6FF1F0EDBCFAF
:102FC000E6FF91EC4EF0E552E5521E0EF3CFDBFF2B
:102FD0001F0EF4CFDBFF0C0EE66EE66AD950140F1D
:102FE000E66E000EDA20E66E0EEC4FF0E552E5528A
:102FF000E552E552F3CF14F0F4CF15F0141E151E70
:10300000200E14C0DBFF210E15C0DBFFF90EDBCF55
:10301000E6FFFA0EDBCFE6FFE7EC54F0E552E552AF
:10302000220EF3CFDBFF230EF4CFDBFF200EDBCF2E
:1030300014F0210EDBCF15F0220EDB50141803E143
:10304000230EDB50151804E015EC52F0010E72D07F
:10305000000EE66EE66AEBEC63F0E552E552140E04
:10306000E66EE66AD9CFE6FFDACFE6FF2BEC57F043
:10307000E552E552E552E552D9CFE6FFDACFE6FF59
:10308000FDEC1FF0E552E552D9500C0FE96EDACF96
:10309000EAFFEF50F00BE842E842E842E842040D54
:1030A000F350146E156A140E145E000E155A240E99
:1030B00014C0DBFF240EDB50166E176AF90EDBCF4F
:1030C00008F0FA0EDBCF09F01650085C146E1750AA
:1030D0000958156E140E145E000E155AF90E14C020
:1030E000DBFFFA0E15C0DBFFFD0EDBCFE6FFFE0EA9
:1030F000DBCFE6FFD9CFE6FFDACFE6FFD7EC1CF057
:10310000E552E552E552E552000910E0F90EDBCF39
:10311000E6FFFA0EDBCFE6FFD9CFE6FFDACFE6FF18
:1031200028EC22F0E552E552E552E55215EC52F05A
:10313000010E00D0146E250EE15C02E2E16AE55258
:10314000E16E1450E552E7CFD9FF1200D9CFE6FF68
:10315000E1CFD9FF280EE126B0EC00F0FE0EDBA097
:1031600004D00C01C887FE0EDB900C01C79B0C013C
:10317000C79D0C01C79F0C01C8930C01C8950C0199
:10318000C891F8EC51F0000901E1FBD7FE0EDB50CD
:10319000060B05E0260EDB6A270EDB6A7CD10C01EC
:1031A00095510C01B61904E10C0196510C01B719A7
:1031B00005E1260EDB6A270EDB6A4ED10C01B65103
:1031C0000C01955D0C01B7510C01965959E20C01A7
:1031D00095510C01B65D146EB7510C019655156EE4
:1031E000260E14C0DBFF270E15C0DBFF260EDBCF3B
:1031F00014F0270EDBCF15F00C0114509B5D155019
:103200009C5906E2260E9BCCDBFF270E9CCCDBFFF5
:10321000260EDBCF14F0270EDBCF15F00C01145077
:10322000AC5D1550AD5908E2260EACCCDBFF270E85
:10323000ADCCDBFF0C01C885260EDBCFE6FF270EE9
:10324000DBCFE6FFCBCCE6FF95CCE6FF96CCE6FFE6
:10325000E66A050EE66E0B0EE66E37EC2FF0146E86
:10326000080EE15E1450260EDBCF08F0270EDBCFF0
:1032700009F008500C01952709500C019623ECD059
:103280000C0195510C01B25D146EB3510C019655B1
:10329000156E240E14C0DBFF250E15C0DBFF240EB7
:1032A000DB500C01B6250001166E250EDB500C011B
:1032B000B7210001176E0C01B051165C146EB151AC
:1032C0001758156E260E14C0DBFF270E15C0DBFF46
:1032D000260EDBCF14F0270EDBCF15F00C011450B7
:1032E0009B5D15509C5906E2260E9BCCDBFF270EFA
:1032F0009CCCDBFF260EDBCF14F0270EDBCF15F0C6
:103300000C011450AC5D1550AD5908E2260EACCC42
:10331000DBFF270EADCCDBFF0C01C885240EDBCF15
:1033200014F0250EDBCF15F0260EDBCF16F0270E9E
:10333000DBCF17F01450165C155017580CE2260E10
:10334000DBCF08F0270EDBCF09F0240E08C0DBFF2F
:10335000250E09C0DBFF240EDBCFE6FF250EDBCFF9
:10336000E6FFCBCCE6FF95CCE6FF96CCE6FFE66A1F
:10337000050EE66E0B0EE66E37EC2FF0146E080E9F
:10338000E15E1450260EDBCF16F0270EDBCF17F0D0
:10339000240EDB50165C146E250EDB501758156E8C
:1033A000240E14C0DBFF250E15C0DBFFD950240FFF
:1033B000E96EDACFEAFFEE50ED102AE0240EDBCF03
:1033C000E6FF250EDBCFE6FFCBCCE6FFB0CCE6FF79
:1033D000B1CCE6FFE66A0C0195510C01B25D146EAA
:1033E000B3510C019655156E166A176A050E142610
:1033F0000B0E1522000E1622000E172214C0E6FF37
:1034000015C0E6FF37EC2FF0186E080EE15E18507D
:10341000260EDBCF08F0270EDBCF09F008500C0199
:10342000952709500C0196230C01B2510C01955DB2
:103430000C01B3510C0196590FE30C01B0510C0172
:10344000B25D146EB3510C01B155156E14500C01E0
:10345000955F15500C01965B0C01C8A71CD0260E79
:10346000DBCF14F0270EDBCF15F00C019B511418A5
:1034700002E19C5115180FE0260EDBCF16F0270E47
:10348000DBCF17F00C01AC51161802E1AD51171843
:1034900002E0FE0EDB80D950260FE96EDACFEAFF9C
:1034A000EE50ED1004E1FE0EDB50030B3BE0260E68
:1034B000DBCF08F0270EDBCF09F008500C019B5F33
:1034C00009500C019C5BD950260FE96EDACFEAFF58
:1034D000EE50ED1002E0FE0EDB86FD0EDBA009D003
:1034E0000C01AE6B0C01F20E896F9E0E8A6F8B6B16
:1034F0008C6B7AEC67F006500C0189250C01BE6FCD
:1035000007500C018A210C01BF6F08500C018B2160
:103510000C01C06F09500C018C210C01C16F0C0112
:10352000C7894ED0FD0EDBA224D0C70EE96E0C0E6B
:10353000EA6EEF50070BE82AF36EF350070BF36EB9
:10354000F46EF80EEF14F310EF6EF4500C018D07CB
:10355000000E0C018E5B000E0C018F5B000E0C0147
:10356000905B010EF36E260EF3CFDBFF270EDB6AB6
:1035700027D00C01C7A924D0FD0EDBB00BD00C0165
:10358000AE5108E00C01AE070C01D8908C338B33A0
:103590008A3389337AEC67F006500C0189250C01D7
:1035A000BE6F07500C018A210C01BF6F08500C013F
:1035B0008B210C01C06F09500C018C210C01C16FD3
:1035C000020E99CCDBFF030E9ACCDBFF040E97CCE6
:1035D000DBFF050E98CCDBFF060E8DCCDBFF070E64
:1035E0008ECCDBFF080E8FCCDBFF090E90CCDBFF0F
:1035F0000A0E91CCDBFF0B0E92CCDBFF0C0E93CCB2
:10360000DBFF0D0E94CCDBFF0F0EDB9CDB9E0E0E62
:10361000DB90DB92DB94DB96FE0EDB50E76E0F0E49
:10362000E7CFDBFF140EDB6A150EDB6A260EDBCF5D
:1036300014F0270EDBCF15F0000114500C018D277C
:10364000000115500C018E23000E8F239023FE0ED7
:10365000DBA221D0FE0EDBB808D00A0EDB6A0B0E0F
:10366000DB6A0C0EDB6A0D0EDB6A0C01ABA30BD020
:10367000D950060FE96EDACFEAFFEE06000EEE5AD9
:10368000EE5AEE5A08D00C018D2B000E8E238F239C
:1036900090230C01AB83FE0EDBA002D00C01AB81AA
:1036A0000C01BC510C01BA5D0C01BD510C01BB59A0
:1036B0001FE30C01B2510C01B45D166EB5510C0143
:1036C000B355176E0C01BC510C01BA5D186EBB519D
:1036D0000C01BD55196E1850165C146E1950175810
:1036E000156E100E14C0DBFF110E15C0DBFF12D0DB
:1036F0000C01BA510C01BC5D146EBD510C01BB55DF
:10370000156E1406000E155A100E14C0DBFF110EB4
:1037100015C0DBFF5FEC52F0F3CFDEFFF4CFDDFF2F
:10372000DECF14F0DDCF15F0400E145C000E1558FE
:1037300003E2DE6ADD6A08D0D9CFE9FFDACFEAFF1B
:10374000400EEE5E000EED5A100EDBCF14F0110E9F
:10375000DBCF15F0DECF16F0DDCF17F01450165C7E
:10376000155017580AE2D9CFE9FFDACFEAFF100E59
:10377000EECFDBFF110EEDCFDBFFD950020FE66E6F
:10378000000EDA20E66EFDEC1FF0E552E552D9504E
:10379000260FE96EDACFEAFF140EEE26000EED22B8
:1037A0000E0EDB88DB9ADB8CDB9EFE0EDBA237D0B5
:1037B000D950260FE96EDACFEAFF040EEE26000E8E
:1037C000ED22020EF36E160EF3CFDBFF040EF36E46
:1037D000170EF3CFDBFF020EF36E180EF3CFDBFFF5
:1037E000180EF36E190EF3CFDBFF010E146ED950D5
:1037F0000E0FE96EDACFEAFFEF50F00BE842E84235
:10380000E842E84214240F0BF36EF46EF346F346DD
:10381000F346F3460F0EEF14F310EF6EF4501A0E4A
:1038200000CEDBFF1B0E01CEDBFF1C0E02CEDBFF4A
:103830001D0E03CEDBFF1E0E9FCCDBFF1F0EA0CCA8
:10384000DBFF200EA1CCDBFF210EA2CCDBFF220E82
:10385000DB6A060EF36E230EF3CFDBFF260EDBCF03
:1038600008F0270EDBCF09F0240E08C0DBFF250E81
:1038700009C0DBFF240EDBCFE6FF250EDBCFE6FF22
:1038800091EC4EF0E552E552240EF3CFDBFF250E0E
:10389000F4CFDBFF0C0EE66EE66AD9501A0FE66E27
:1038A000000EDA20E66E0EEC4FF0E552E552E552DE
:1038B000E552F3CF14F0F4CF15F0141E151E120EBE
:1038C00014C0DBFF130E15C0DBFFDD0EE66E0A0E23
:1038D000E66E40EC54F0E552E552260EDBCFE6FFF3
:1038E000270EDBCFE6FF060EE66E9F0EE66E0C0E91
:1038F000E66E38EC63F0146E050EE15E1450140EA3
:10390000E66EE66AD950020FE66E000EDA20E66E29
:1039100088EC57F0E552E552E552E552FE0EDBA287
:103920000FD0040EE66EE66AD950160FE66E000E52
:10393000DA20E66E88EC57F0E552E552E552E552A2
:10394000F10EE66E0A0EE66E63EC54F0E552E552B7
:10395000260EDBCFE6FF270EDBCFE6FFE7EC54F0C9
:10396000E552E552F3CFDEFFF4CFDDFF010EE66E48
:103970000B0EE66E40EC54F0E552E552020EE66E98
:10398000E66AD9CFE6FFDACFE6FF88EC57F0E552DA
:10399000E552E552E552E5EC53F0280EE15C02E217
:1039A000E16AE552E16EE552E7CFD9FF1200D9CFC7
:1039B000E6FFE1CFD9FF060EE126FD0EDBCFE9FFE2
:1039C000FE0EDBCFEAFF020EE926000EEA22EE50E1
:1039D000ED1002E1000E05D3DE52FE0EDD6EFB0E91
:1039E000DBCFE9FFFC0EDBCFEAFF020EE926000E7B
:1039F000EA22EECF1AF0EFCF1BF0FB0EDBCFE9FF90
:103A0000FC0EDBCFEAFF1A50EE24186E1B50EE209E
:103A1000196EFD0EDBCFE9FFFE0EDBCFEAFF18507B
:103A2000EE24166E1950EE20176EFD0EDBCFE9FF67
:103A3000FE0EDBCFEAFF020EE926000EEA22165048
:103A4000EE18146E1750EE18156E020E14C0DBFF40
:103A5000030E15C0DBFFDF6ADF50146E156A090E16
:103A6000145C000E155801E379D0DFCFE6FF5EEC61
:103A700000F0E5520D0E0C01C65D02E16DD02BD0B9
:103A8000040E0C01C65D1AE1FD0EDBCFE9FFFE0E50
:103A9000DBCFEAFF020EE926000EEA22EECF14F099
:103AA000EFCF15F014500C01C91902E11550CA19D5
:103AB00003E1010EDFCFDBFF4FD00DD0C9CC14F0F6
:103AC000CACC15F0020EDB50141803E1030EDB50D4
:103AD000151801E041D0B0EC00F0FD0EDBCFE9FF9E
:103AE000FE0EDBCFEAFF020EE926000EEA22EECF41
:103AF00014F0EFCF15F00C019951141802E19A510E
:103B000015182AE1FD0EDBCFE9FFFE0EDBCFEAFF41
:103B1000EECF16F0EFCF17F00C019751161802E117
:103B20009851171819E1FB0EDBCFE9FFFC0EDBCF34
:103B3000EAFFEE500C019F190CE1EE500C01A019A8
:103B400008E1EE500C01A11904E1EE500C01A2199C
:103B500000E102E1010E45D2DF2A7ED7010EDB50E3
:103B6000FE0843E0010EDBCFE6FF5EEC00F0E5521D
:103B7000B0EC00F0010EDB50FE0837E0020EDBCFA8
:103B8000C9FC030EDBCFCAFC0A0EE66EE66AFB0E2A
:103B9000DBCFE6FFFC0EDBCFE6FF9F0EE66E0C0EE2
:103BA000E66E81EC66F0146E060EE15E1450FD0EBA
:103BB000DBCFE9FFFE0EDBCFEAFFEECF97FCEDCFC8
:103BC00098FCFD0EDBCFE9FFFE0EDBCFEAFF020E15
:103BD000E926000EEA22EECF99FCEDCF9AFCB0CC9C
:103BE00095FCB1CC96FC010EFCD1FD0EDBCFE9FFBC
:103BF000FE0EDBCFEAFF0D0EE926000EEA22EF50A3
:103C0000020B02E1000EEDD10401FC51FD1102E0B6
:103C1000000EE7D1040EDB6A050EDB6A040EDBCF73
:103C200014F0050EDBCF15F0030E145C000E1558D2
:103C300001E3D8D0040EDBCFE9FF050EDBCFEAFFAE
:103C4000140EEA02F3CFEAFF140EE902F3CFE9FF04
:103C5000F450EA26C40EE926040EEA22100EE926E4
:103C6000000EEA22EE50ED1001E1BCD0040EDBCFD5
:103C7000E9FF050EDBCFEAFF140EEA02F3CFEAFFFD
:103C8000140EE902F3CFE9FFF450EA26C40EE92648
:103C9000040EEA22100EE926000EEA22EECF14F0FE
:103CA000EFCF15F0FD0EDBCFE9FFFE0EDBCFEAFF15
:103CB000020EE926000EEA22EECF16F0EFCF17F043
:103CC0001650141802E11750151801E085D0040EA3
:103CD000DBCFE9FF050EDBCFEAFF140EEA02F3CFDC
:103CE000EAFF140EE902F3CFE9FFF450EA26C40E0E
:103CF000E926040EEA220A0EE926000EEA22EECF99
:103D000014F0EFCF15F0FD0EDBCFE9FFFE0EDBCF99
:103D1000EAFFEECF16F0EFCF17F01650141802E1BD
:103D20001750151801E058D0FB0EDBCFE9FFFC0E51
:103D3000DBCFEAFFEECF14F0EECF15F0EECF16F0AA
:103D4000EFCF17F0040EDBCFE9FF050EDBCFEAFF64
:103D5000140EEA02F3CFEAFF140EE902F3CFE9FFF3
:103D6000F450EA26C40EE926040EEA22EE500001C1
:103D700014180CE1EE500001151808E1EE50000196
:103D8000161804E1EE500001171800E101E024D0FC
:103D9000A1EC67F006C014F007C015F0040EDBCFED
:103DA000E9FF050EDBCFEAFF140EEA02F3CFEAFFCC
:103DB000140EE902F3CFE9FFF450EA26C40EE92617
:103DC000040EEA22120EE926000EEA2214C0EEFFCB
:103DD00015C0EDFF000E05D1040EDB2A050E01E330
:103DE000DB2A1CD7DF6ADF50146E156A090E145CDB
:103DF000000E155801E3F3D0DFCFE6FF5EEC00F0D4
:103E0000E5520C01C7A7E9D0B0EC00F0FD0EDBCF06
:103E1000E9FFFE0EDBCFEAFF020EE926000EEA22E2
:103E2000EECF14F0EFCF15F014500C01991902E108
:103E300015509A1901E0D1D00A0EE66EE66AFB0E23
:103E4000DBCFE6FFFC0EDBCFE6FF040EDBCFE9FFA6
:103E5000050EDBCFEAFF140EEA02F3CFEAFF140EE1
:103E6000E902F3CFE9FFF450EA26C40EE926040E76
:103E7000EA22E9CF14F0EACF15F014C0E6FF15C02E
:103E8000E6FF81EC66F0166E060EE15E1650FD0E42
:103E9000DBCFE9FFFE0EDBCFEAFFEECF14F0EFCF72
:103EA00015F0040EDBCFE9FF050EDBCFEAFF140EA1
:103EB000EA02F3CFEAFF140EE902F3CFE9FFF45070
:103EC000EA26C40EE926040EEA220A0EE926000EAE
:103ED000EA2214C0EEFF15C0EDFFFD0EDBCFE9FFB7
:103EE000FE0EDBCFEAFF040EE926000EEA22EECF3B
:103EF00014F0EECF15F0EECF16F0EFCF17F0040E62
:103F0000DBCFE9FF050EDBCFEAFF140EEA02F3CFA9
:103F1000EAFF140EE902F3CFE9FFF450EA26C40EDB
:103F2000E926040EEA220C0EE926000EEA2214C04D
:103F3000EEFF15C0EEFF16C0EEFF17C0EEFFFD0E40
:103F4000DBCFE9FFFE0EDBCFEAFF020EE926000E13
:103F5000EA22EECF14F0EFCF15F0040EDBCFE9FF2D
:103F6000050EDBCFEAFF140EEA02F3CFEAFF140ED0
:103F7000E902F3CFE9FFF450EA26C40EE926040E65
:103F8000EA22100EE926000EEA2214C0EEFF15C048
:103F9000EDFFA1EC67F006C014F007C015F0040EA9
:103FA000DBCFE9FF050EDBCFEAFF140EEA02F3CF09
:103FB000EAFF140EE902F3CFE9FFF450EA26C40E3B
:103FC000E926040EEA22120EE926000EEA2214C0A7
:103FD000EEFF15C0EDFF000E04D0DF2A04D7000E5F
:103FE00000D0146E060EE15C02E2E16AE552E16E79
:103FF0001450E552E7CFD9FF1200D9CFE6FFE1CF49
:10400000D9FFFD0EDBCFE9FFFE0EDBCFEAFFEECFDF
:10401000E6FFEFCFE6FF91EC4EF0E552E552F3CF2D
:1040200014F0F4CF15F0FD0EDBCFE9FFFE0EDBCF71
:10403000EAFF14C0EEFF15C0EDFFFD0EDBCFE9FF78
:10404000FE0EDBCFEAFF020EE926000EEA22EECFDB
:10405000E6FFEFCFE6FF91EC4EF0E552E552F3CFED
:1040600014F0F4CF15F0FD0EDBCFE9FFFE0EDBCF31
:10407000EAFF020EE926000EEA2214C0EEFF15C088
:10408000EDFFFD0EDBCFE9FFFE0EDBCFEAFF040EF6
:10409000E926000EEA22EECFE6FFEECFE6FFEECFF6
:1040A000E6FFEFCFE6FFBBEC4EF0E552E552E552FE
:1040B000E55206C014F007C015F008C016F009C09C
:1040C00017F0FD0EDBCFE9FFFE0EDBCFEAFF040E9B
:1040D000E926000EEA2214C0EEFF15C0EEFF16C05E
:1040E000EEFF17C0EEFFFD0EDBCFE9FFFE0EDBCFCC
:1040F000EAFF080EE926000EEA22EECFE6FFEECF39
:10410000E6FFEECFE6FFEFCFE6FFBBEC4EF0E55269
:10411000E552E552E55206C014F007C015F008C09C
:1041200016F009C017F0FD0EDBCFE9FFFE0EDBCF66
:10413000EAFF080EE926000EEA2214C0EEFF15C0C1
:10414000EEFF16C0EEFF17C0EEFFFD0EDBCFE9FF5E
:10415000FE0EDBCFEAFF0E0EE926000EEA22EECFBE
:10416000E6FFEFCFE6FF91EC4EF0E552E552F3CFDC
:1041700014F0F4CF15F0FD0EDBCFE9FFFE0EDBCF20
:10418000EAFF0E0EE926000EEA2214C0EEFF15C06B
:10419000EDFFFD0EDBCFE9FFFE0EDBCFEAFF100ED9
:1041A000E926000EEA22EECFE6FFEFCFE6FF91EC24
:1041B0004EF0E552E552F3CF14F0F4CF15F0FD0EBA
:1041C000DBCFE9FFFE0EDBCFEAFF100EE926000E83
:1041D000EA2214C0EEFF15C0EDFFFD0EDBCFE9FFB4
:1041E000FE0EDBCFEAFF120EE926000EEA22EECF2A
:1041F000E6FFEFCFE6FF91EC4EF0E552E552F3CF4C
:1042000014F0F4CF15F0FD0EDBCFE9FFFE0EDBCF8F
:10421000EAFF120EE926000EEA2214C0EEFF15C0D6
:10422000EDFFE552E7CFD9FF1200B0EC00F099CCDA
:10423000C9FC9ACCCAFCB0CCB6FCB1CCB7FCB0CCB3
:10424000B8FCB1CCB9FCB2CCBAFCB3CCBBFCB2CCA0
:10425000BCFCB3CCBDFC0C010C01C751080B02E047
:10426000040E01D00D0E0C01C66F0C01C791C7934F
:10427000C7950C01C7990C01C79B0C01C79D0C0188
:10428000C79F0C01C8910C01C8930C01C8950C0183
:10429000C8970C01C8890C01AB910C01AB930C01C0
:1042A000AB970C01AB99B0CC95FCB1CC96FC1CEC57
:1042B00049F0F3CF8DFCF4CF8EFC1CEC49F0F3CF2A
:1042C0008FFCF4CF90FC0C01A969AA69010E0C01C6
:1042D0009B6F9C6B1200D9CFE6FFE1CFD9FF040E94
:1042E000E1260C0EE66EE66AEBEC63F0E552E55271
:1042F00028EC57F0DF6EF00EDF14E840E8403F0B8B
:10430000146E156A140E145E000E155A1450DF6EEA
:10431000DF5005E1180EF36E020EF46E8FD0070E1B
:10432000E66EE66A000EE66EE66A2BEC57F0E552A2
:10433000E552E552E552DF50DF06000901E179D090
:1043400028EC57F0E76E010EE7CFDBFF010EDB50E4
:1043500001E16FD0010EDB0401E1EDD7010EDB506E
:10436000020847E1030EDF5C01E263D0020EDB6A64
:10437000030EDB6A28EC57F0E76E010EE7CFDBFF98
:10438000010EDB5004080CE128EC57F0E76E030E39
:10439000E7CFDBFF28EC57F0E76E020EE7CFDBFF3D
:1043A000020EDBCF14F0030EDBCF15F0180E145CF9
:1043B000020E155801E23DD0D950020FE96EDACF56
:1043C000EAFFB40ED880EE54050EED5406E2B40EAA
:1043D000F36E050EF46E32D00BD0020EDBCF14F06C
:1043E000030EDBCF15F014C0F3FF15C0F4FF26D089
:1043F0001FD0020EDF5C01E21CD028EC57F0E76E04
:10440000010EE7CFDBFF010EDB50DF5C01E211D0D4
:10441000010EDBCFE6FFE66A000EE66EE66A2BECE5
:1044200057F0E552E552E552E552010EDB50DF5EF2
:1044300082D7180EF36E020EF46E00D0040EE15C0B
:1044400002E2E16AE552E16EE552E7CFD9FF1200E0
:10445000D9CFE6FFE1CFD9FF1C0EE126FD0EDBCF61
:10446000E9FFFE0EDBCFEAFF0D0EE926000EEA2281
:104470000E0EEFCFDBFFFD0EDBCFE9FFFE0EDBCF35
:10448000EAFF080EE926000EEA220F0EEECFDBFF50
:10449000100EEECFDBFF110EEECFDBFF120EEECFD4
:1044A000DBFFFD0EDBCFE9FFFE0EDBCFEAFF040EE4
:1044B000E926000EEA22130EEECFDBFF140EEECF3C
:1044C000DBFF150EEECFDBFF160EEECFDBFF0C0190
:1044D000C791C793C7950C01C7B916D07AEC67F09E
:1044E00006C0BEFC07C0BFFC08C0C0FC09C0C1FCC0
:1044F000740E0C01BE27350E0C01BF23060E0C01F5
:10450000C023000E0C01C1230C01C651050A50E066
:10451000010A01E0FAD00E0EDBA403D086DE74EFB0
:104520002DF00E0EDBA816D00F0EDBCF8DFC100E7B
:10453000DBCF8EFC110EDBCF8FFC120EDBCF90FC9D
:10454000E66A040EE66EA6EC18F0E552E5526DDE62
:1045500074EF2DF00E0EDBA228D0130EDBCF91FCF2
:10456000140EDBCF92FC150EDBCF93FC160EDBCFC7
:1045700094FC0C01912B000E0C019223000E0C01F7
:104580009323000E0C019423A6DEF3CFACFCF4CFF2
:10459000ADFC010EE66E120EE66EA6EC18F0E552CA
:1045A000E5520C01060EC66F01D03FDE74EF2DF010
:1045B0000E0EDBA402D074EF2DF00E0EDBA844D05B
:1045C000D9500F0FE96EDACFEAFFEE500C018D19CA
:1045D0000CE1EE500C018E1908E1EE500C018F1920
:1045E00004E1EE500C01901900E12EE0130E8DCC89
:1045F000DBFF140E8ECCDBFF150E8FCCDBFF160E0F
:1046000090CCDBFF0F0EDBCF8DFC100EDBCF8EFCD2
:10461000110EDBCF8FFC120EDBCF90FC010EE66E8D
:10462000040EE66EA6EC18F0E552E552130EDBCF51
:104630008DFC140EDBCF8EFC150EDBCF8FFC160E1F
:10464000DBCF90FC74EF2DF00E0EDBA25CD0130ECE
:10465000DBCF91FC140EDBCF92FC150EDBCF93FC6D
:10466000160EDBCF94FC0C01912B000E0C01922353
:10467000000E0C019323000E0C019423FD0EDBCFE2
:10468000E9FFFE0EDBCFEAFF0E0EE926000EEA225E
:10469000EECF9BFCEDCF9CFC1EDEF3CFACFCF4CF49
:1046A000ADFC0E0EDBA824D0010EE66E100EE66EF9
:1046B000A6EC18F0E552E5520C01070EC66F7AEC35
:1046C00067F006C0BEFC07C0BFFC08C0C0FC09C044
:1046D000C1FC740E0C01BE27350E0C01BF23060E63
:1046E0000C01C023000E0C01C1230C01C7990BD093
:1046F000010EE66E120EE66EA6EC18F0E552E552DB
:104700000C01060EC66F74EF2DF000D0FB0EDBCF50
:1047100008F0FC0EDBCF09F0170E08C0DBFF180E07
:1047200009C0DBFF0E0EDBA005D0170EDB2A180E2A
:1047300001E3DB2A0E0EDBA205D0170EDB2A180ED2
:1047400001E3DB2A0C01BC510C01BA5D0C01BD5127
:104750000C01BB591FE30C01B2510C01B45D166E84
:10476000B5510C01B355176E0C01BC510C01BA5D6B
:10477000186EBB510C01BD55196E1850165C146EA5
:1047800019501758156E0C0E14C0DBFF0D0E15C016
:10479000DBFF12D00C01BA510C01BC5D146EBD518F
:1047A0000C01BB55156E1406000E155A0C0E14C0E4
:1047B000DBFF0D0E15C0DBFFD950130FE96EDACF0A
:1047C000EAFF0C019151EE5C146E0C019251EE580F
:1047D000156E0C019351EE58166E0C019451EE5863
:1047E000176E060E14C0DBFF070E15C0DBFF080EA8
:1047F00016C0DBFF090E17C0DBFF060EDBCF08F08B
:10480000070EDBCF09F00A0E08C0DBFF0B0E09C054
:10481000DBFF190EDB6AD950170FE96EDACFEAFF1A
:10482000EE50ED1001E1C3D0D9500C0FE96EDACF94
:10483000EAFFEE50ED1001E1B9D0D950060FE96E54
:10484000DACFEAFFD890030EEB50000A08E6000E1C
:10485000EE5C000EEE58000EEE58000EEE581CE313
:104860000C0EDBCF14F00D0EDBCF15F0166A176AB5
:10487000D950060FE96EDACFEAFF1450EE5C1550FE
:10488000EE581650EE581750EE5806E2010EF36E31
:10489000190EF3CFDBFF53D0170EDBCF14F0180E39
:1048A000DBCF15F0166A176AD950060FE96EDACF1A
:1048B000EAFFEE501426EE501522EE501622EE506E
:1048C00017221734000E171809E6D880000E14546A
:1048D000000E1554000E1654000E175430E20C0E44
:1048E000DBCF1CF00D0EDBCF1DF0170EDB501C5C78
:1048F000186E180EDB501D58196E1A6A1B6A19AE15
:1049000002D01A681B68D950060FE96EDACFEAFFA9
:10491000030EEBCFF3FF1B50F318E8AE02D0F334D5
:1049200008D0EE50185CEE501958EE501A58EE5060
:104930001B5805E3010EF36E190EF3CFDBFF0C0ECF
:10494000DBCF14F00D0EDBCF15F0166A176AD950C5
:10495000060FE96EDACFEAFF030EEB501718E8AE48
:1049600002D0173408D01450EE5C1550EE58165093
:10497000EE581750EE581AE2170EDBCF1AF0180E49
:10498000DBCF1BF00A0EDB501A24186E0B0EDB5027
:104990001B20196E193404E218500008000E195437
:1049A00005E2010EF36E190EF3CFDBFF45D0060EC4
:1049B000DBCF14F0070EDBCF15F0080EDBCF16F0BF
:1049C000090EDBCF17F0145015101610171006E162
:1049D000010EF36E190EF3CFDBFF2ED0D950060F68
:1049E000E96EDACFEAFFD890030EEB50000A08E632
:1049F000000EEE5C000EEE58000EEE58000EEE5863
:104A00001BE30C0EDBCF14F00D0EDBCF15F0166A96
:104A1000176AD950060FE96EDACFEAFF1450EE5C40
:104A20001550EE581650EE581750EE5805E2010E8C
:104A3000F36E190EF3CFDBFF190EDB500DE10E0EF6
:104A4000DBB408D0010EE66E100EE66EA6EC18F090
:104A5000E552E55274EF2DF00E0EDB50060B04E02C
:104A600015EC21F074EF2DF00E0EDBB802D074EFD0
:104A70002DF00C01C6510C0A01E1B1D30B0A52E032
:104A80000F0A50E0010A4EE0020A4CE0010A4AE037
:104A90000C0A01E0C9D3D9500F0FE96EDACFEAFF53
:104AA000EE500C018D190CE1EE500C018E1908E14D
:104AB000EE500C018F1904E1EE500C01901900E149
:104AC0002EE0130E8DCCDBFF140E8ECCDBFF150E0B
:104AD0008FCCDBFF160E90CCDBFF0F0EDBCF8DFCF7
:104AE000100EDBCF8EFC110EDBCF8FFC120EDBCF56
:104AF00090FC010EE66E040EE66EA6EC18F0E55290
:104B0000E552130EDBCF8DFC140EDBCF8EFC150EA1
:104B1000DBCF8FFC160EDBCF90FC74EF2DF00C0179
:104B2000070EC66F0C0195510C01B65D146EB7519E
:104B30000C019655156E040E14C0DBFF050E15C052
:104B4000DBFF040EDBCF14F0050EDBCF15F0000108
:104B5000800E151412E00C01B0510C01B25D146E00
:104B6000B3510C01B155156ED950040FE96EDACF6F
:104B7000EAFF1450EE261550ED22040EDBCF14F0A0
:104B8000050EDBCF15F0166A176A8D0EE96E0C0E56
:104B9000EA6EEE501426EE501522EE501622EE501C
:104BA000172214C0DFFF010E15C0DBFF020E16C076
:104BB000DBFF030E17C0DBFF0F0EDBCF18F0100E6C
:104BC000DBCF19F0110EDBCF1AF0120EDBCF1BF08A
:104BD000D9CFE9FFDACFEAFFEE50185C146EEE5041
:104BE0001958156EEE501A58166EEE501B58176E67
:104BF00014C0DFFF010E15C0DBFF020E16C0DBFF85
:104C0000030E17C0DBFFDECF07F0DECF08F0DECFEC
:104C100009F0DDCF0AF0DD52DD520A34000E0A1829
:104C200009E6D880000E0754000E0854000E0954FF
:104C3000000E0A5426E20C010C01AB51010B0DE0F1
:104C4000D9CFE9FFDACFEAFF010EEE1805E1EE5009
:104C500003E1EE5001E1EE500AE0E66A100EE66E66
:104C6000A6EC18F0E552E55274EF2DF00AD0D950B9
:104C70000F0FE96EDACFEAFFEE06000EEE5AEE5A9B
:104C8000EE5A0C01B8510C01955D186E96510C014D
:104C9000B955196E1A6A1B6A19AE02D01A681B68D8
:104CA00018500C018D5D146E19500C018E59156E43
:104CB0001A500C018F59166E1B500C019059176E2B
:104CC00014C0DFFF010E15C0DBFF020E16C0DBFFB4
:104CD000030E17C0DBFF0C01B8510C01955D0C01F0
:104CE000B9510C01965917E20C01B0510C01B25D9B
:104CF000146EB3510C01B155156E166A176AD9CFEF
:104D0000E9FFDACFEAFF1450EE5E1550EE5A165066
:104D1000EE5A1750EE5A0F0EDBCF18F0100EDBCF05
:104D200019F0110EDBCF1AF0120EDBCF1BF0D9CF2A
:104D3000E9FFDACFEAFFEE50185C146EEE50195816
:104D4000156EEE501A58166EEE501B58176E14C0A2
:104D5000DFFF010E15C0DBFF020E16C0DBFF030EE6
:104D600017C0DBFFDECF07F0DECF08F0DECF09F0A3
:104D7000DDCF0AF0DD52DD520A34000E0A1809E6D2
:104D8000D880000E0754000E0854000E0954000E7F
:104D90000A5401E3CED00C01B0510C01B25D146E87
:104DA000B3510C01B155156E166A176AD9CFE9FFD8
:104DB000DACFEAFFEE50145CEE501558EE5016585C
:104DC000EE50175801E2B5D00C01AB970C01AB992E
:104DD0000C01C891040EB8CCDBFF050EB9CCDBFF8B
:104DE000D9CFE9FFDACFEAFFEE500C01B827EE5039
:104DF0000C01B923040EDBCF14F0050EDBCF15F048
:104E00000C011450955D1550965922E30C01B851D0
:104E10000C01955D0C01B9510C01965918E20C0179
:104E200095510C01B85D146EB9510C019655156E73
:104E3000000114500C018D27000115500C018E2328
:104E4000000E8F239023B8CC95FCB9CC96FC40D0B3
:104E50000C01B0510C01B25D166EB3510C01B1558D
:104E6000176E0C010C0195511624146E0C010C01E7
:104E700096511720156E040E14C0DBFF050E15C0E9
:104E8000DBFF040EDBCF14F0050EDBCF15F00C01B9
:104E9000B851145CB95115581BE2040EDB500C01DB
:104EA000B85D0001146E050EDB500C01B95900010C
:104EB000156E000114500C018D27000115500C01D6
:104EC0008E23000E8F239023B8CC95FCB9CC96FC92
:104ED0000C01B2510C01B85D0C01B3510C01B95970
:104EE0000FE30C01B0510C01B25D146EB3510C0113
:104EF000B155156E14500C01B85F15500C01B95B1B
:104F00000C01B2510C01955D0C01B3510C01965985
:104F10000FE30C01B0510C01B25D146EB3510C01E2
:104F2000B155156E14500C01955F15500C01965B30
:104F300059D00C0195510C01B81904E10C0196519E
:104F40000C01B9194FE00C01ABA74AD00C01ABA979
:104F500045D00C01B8510C01955D146E96510C01B1
:104F6000B955156E166A176A15AE02D0166817681D
:104F700014500C018D5F15500C018E5B16500C0106
:104F80008F5B17500C01905B0C01B8510C01955DC3
:104F90000C01B9510C0196591BE20C01B0510C01E6
:104FA000B25D146EB3510C01B155156E166A176AD5
:104FB00015AE02D01668176814500C018D5F15509D
:104FC0000C018E5B16500C018F5B17500C01905B2F
:104FD000B8CC95FCB9CC96FC0C01C8850C01AB890A
:104FE0000C01AB870C01B6510C01B81904E10C019E
:104FF000B7510C01B9193BE10C01C8B719D07AECD3
:1050000067F006C0BEFC07C0BFFC08C0C0FC09C0FA
:10501000C1FC740E0C01BE27350E0C01BF23060E19
:105020000C01C023000E0C01C1230C01C7991FD035
:10503000D9500F0FE96EDACFEAFF0C018D51EE184F
:105040000CE10C018E51EE1808E10C018F51EE18A5
:1050500004E10C019051EE1800E109E10C010C0192
:10506000AB51010B04E00C01C7990C01C897D95052
:105070000F0FE96EDACFEAFFEE500C018D5D166E70
:10508000EE500C018E59176EEE500C018F59186EB0
:10509000EE500C019059196EFD0EDBCFE9FFFE0EAC
:1050A000DBCFEAFF0E0EE926000EEA221650EE5C78
:1050B000146E1750EE58156E1A0E14C0DBFF1B0E3F
:1050C00015C0DBFF0C019B519C110AE1D9501A0F4E
:1050D000E96EDACFEAFFEE50ED1002E00C01C88372
:1050E0001A0EDBCF9BFC1B0EDBCF9CFC080E0C01C9
:1050F000C65D37E1D9500F0FE96EDACFEAFF0C0138
:105100008D51EE180CE10C018E51EE1808E10C01E6
:105110008F51EE1804E10C019051EE1800E120E1EE
:105120000C010C01AB51010B1BE07AEC67F006C0DF
:10513000BEFC07C0BFFC08C0C0FC09C0C1FCBA0E61
:105140000C01BE271A0E0C01BF23030E0C01C02355
:10515000000E0C01C1230C01C7890C01090EC66F9A
:105160003DD0090E0C01C65D1BE10E0EDBB017D061
:105170000F0EDBCF8DFC100EDBCF8EFC110EDBCFC4
:105180008FFC120EDBCF90FCE66A140EE66EA6ECE6
:1051900018F0E552E55215EC21F074EF2DF01ED019
:1051A0000A0E0C01C65D1AE1D9500F0FE96EDACF75
:1051B000EAFF0C018D51EE180CE10C018E51EE1836
:1051C00008E10C018F51EE1804E10C019051EE182A
:1051D00000E102E115EC21F074EF2DF026D08DCC2A
:1051E00014F08ECC15F08FCC16F090CC17F0142A5A
:1051F000000E1522000E1622000E1722D9500F0F96
:10520000E96EDACFEAFF1450EE1809E11550EE18F6
:1052100006E11650EE1803E11750EE1800E102E126
:1052200015EC21F074EF2DF000D00E0EDBAA02D0A9
:1052300074EF2DF00B0E0C01C65D02E174EF2DF042
:105240000A0E0C01C65D02E174EF2DF00C0E0C018C
:10525000C65D02E174EF2DF0D950FB0FE96EFF0E31
:10526000DA20EA6EEE50ED1001E174D30A0EDBCFC6
:1052700014F00B0EDBCF15F0153404E214500008C7
:10528000000E155401E26FD1FD0EDBCFE9FFFE0EDB
:10529000DBCFEAFF0C0EE926000EEA22EF50F00BFE
:1052A000E842E842E842E842040DF350166E176AFD
:1052B0000A0EDB50165C146E0B0EDB501758156E81
:1052C00014C0E6FF15C0E6FFEBEC63F0E552E552D3
:1052D0000A0EDBCF14F00B0EDBCF15F0D950FB0F0D
:1052E000E96EFF0EDA20EA6E1450EE261550ED221C
:1052F000FB0EDBCF14F0FC0EDBCF15F00C0EDBCF7A
:1053000016F00D0EDBCF17F01450165C1550175821
:105310000CE20C0EDBCF08F00D0EDBCF09F0FB0E1C
:1053200008C0DBFFFC0E09C0DBFFFB0EDBCF14F077
:10533000FC0EDBCF15F0000114500C019127000189
:1053400015500C019223000E93239423FB0EDB5087
:105350000C01BA250001146EFC0EDB500C01BB21C0
:105360000001156E0C011450B45D1550B55964E27E
:105370000C01BA510C01B45D146EB5510C01BB5552
:10538000156E010E1426000E1522040E14C0DBFF4C
:10539000050E15C0DBFF040EDBCFE6FF050EDBCFED
:1053A000E6FFE66AE668E668CBCCE6FFBACCE6FF45
:1053B000BBCCE6FF37EC2FF0146E080EE15E145004
:1053C000FB0EDBCF16F0FC0EDBCF17F0040EDB502C
:1053D000165C146E050EDB501758156E14C0E6FFF0
:1053E00015C0E6FFE66AE668E668CBCCE6FFB2CC1D
:1053F000E6FFB3CCE6FF37EC2FF0186E080EE15E47
:105400001850FB0EDBCF16F0FC0EDBCF17F0040EAE
:10541000DB50165C146E050EDB501758156E0C0130
:105420000C01B25114240C01BA6F0C010C01B351E0
:1054300015200C01BB6F21D0FB0EDBCFE6FFFC0E6D
:10544000DBCFE6FFE66AE668E668CBCCE6FFBACCDF
:10545000E6FFBBCCE6FF37EC2FF0146E080EE15EE2
:105460001450FB0EDBCF08F0FC0EDBCF09F0085028
:105470000C01BA2709500C01BB230C01A91D01E145
:10548000AA1D70E0FB0EDBCF08F0FC0EDBCF09F0AD
:1054900008500C01A95F09500C01AA5B0C010C011A
:1054A0009D510C01A925146E0C010C019E510C019B
:1054B000AA21156E040E14C0DBFF050E15C0DBFF1C
:1054C000040EDBCF14F0050EDBCF15F00001800ECB
:1054D000151404E00C01A969AA6944D00C01AA358D
:1054E00004E2A9510008000EAA553CE3040EDBCFEC
:1054F00014F0050EDBCF15F0000114500C019127BC
:10550000000115500C019223000E93239423040EE6
:10551000DBCF08F0050EDBCF09F008500C01BA27ED
:1055200009500C01BB230C01BA510C01B45D0C01F4
:10553000BB510C01B55913E20C01B2510C01B45D21
:10554000146EB5510C01B355156E010E1426000EE4
:10555000152214500C01BA5F15500C01BB5B0C01F5
:10556000A969AA69F7D10A0EDBCF14F00B0EDBCFC5
:1055700015F0153404E214500008000E155401E330
:10558000E9D10A0EDBCF16F00B0EDBCF17F0FB0EC6
:10559000DB501624146EFC0EDB501720156E0C0E1B
:1055A000DBCF18F00D0EDBCF19F01450185C15503E
:1055B000195814E20C0EDBCF16F00D0EDBCF17F0EE
:1055C0000A0EDB50165C146E0B0EDB501758156E6E
:1055D000FB0E14C0DBFFFC0E15C0DBFFFD0EDBCFA6
:1055E000E9FFFE0EDBCFEAFF0C0EE926000EEA22F1
:1055F000EF50F00BE842E842E842E842040DF35075
:10560000E66EE66AEBEC63F0E552E5520A0EDB501B
:105610000C01BA250001166E0B0EDB500C01BB21EC
:105620000001176EFB0EDB501624146EFC0EDB50CF
:105630001720156E0C011450B45D1550B55901E3D7
:105640009AD00C01BA510C01B45D166EB5510C0123
:10565000BB55176E010E1626000E17220A0EDB50E0
:10566000165C146E0B0EDB501758156E040E14C02A
:10567000DBFF050E15C0DBFF040EDBCF14F0050EBB
:10568000DBCF15F00001800E151441E1040EDBCFD5
:10569000E6FF050EDBCFE6FFE66AE668E668CBCC00
:1056A000E6FF0A0EDB500C01BA250001146E0B0E4A
:1056B000DB500C01BB210001156E14C0E6FF15C0C4
:1056C000E6FFD5DB166E080EE15E1650FB0EDBCF53
:1056D00016F0FC0EDBCF17F0040EDB50165C146ED8
:1056E000050EDB501758156E14C0E6FF15C0E6FF17
:1056F000E66AE668E668CBCCE6FFB2CCE6FFB3CC60
:10570000E6FFB5DB186E080EE15E185033D0FB0ED5
:10571000DBCFE6FFFC0EDBCFE6FFE66AE668E66875
:10572000CBCCE6FF0A0EDB500C01BA250001166E49
:105730000B0EDB500C01BB210001176E0C01B251A6
:105740000C01B45D186EB5510C01B355196E010E04
:105750001826000E19221850165C146E195017588E
:10576000156E14C0E6FF15C0E6FF81DB1A6E080E49
:10577000E15E1A5020D0FB0EDBCFE6FFFC0EDBCF44
:10578000E6FFE66AE668E668CBCCE6FF0A0EDB5089
:105790000C01BA250001146E0B0EDB500C01BB216D
:1057A0000001156E14C0E6FF15C0E6FF60DB166E43
:1057B000080EE15E16500C01A91D01E1AA1D0DE1C4
:1057C0000A0EDBCFA9FC0B0EDBCFAAFCFB0EDBCF56
:1057D0009DFCFC0EDBCF9EFCBDD00A0EDBCF14F08F
:1057E0000B0EDBCF15F00C01A951145CAA51155812
:1057F00059E2FB0EDBCF16F0FC0EDBCF17F00A0EE2
:10580000DB501624146E0B0EDB501720156E0C01A6
:105810000C01A9510C019D25186E0C010C01AA5117
:105820000C019E21196E1450185C1550195814E380
:10583000FB0EDBCF1CF0FC0EDBCF1DF00A0EDB50A5
:105840001C241A6E0B0EDB501D201B6E0C01A9517F
:105850001A5CAA511B5807E2FB0EDBCF9DFCFC0E25
:10586000DBCF9EFC18D00C010C01A9510C019D2529
:10587000146E0C010C01AA510C019E21156E0A0E2A
:10588000DB500001145C0C019D6F0B0EDB5000011E
:1058900015580C019E6F0A0EDBCFA9FC0B0EDBCF57
:1058A000AAFC58D0FB0EDBCF16F0FC0EDBCF17F0B6
:1058B0000A0EDB501624146E0B0EDB501720156EEB
:1058C0000C010C01A9510C019D25186E0C010C0155
:1058D000AA510C019E21196E1450185C15501958CC
:1058E00039E20A0EDBCF14F00B0EDBCF15F00C0102
:1058F0000C01A9510C019D25166E0C010C01AA5139
:105900000C019E21176E1450165C1550175822E397
:10591000FB0EDBCF1AF0FC0EDBCF1BF00A0EDB50C8
:105920001A24186E0B0EDB501B20196E0C01A951A6
:10593000185C166EAA511958176E0C019D51165C11
:10594000146E9E511758156E14500C019D2715505A
:105950000C019E23D950170FE96EDACFEAFFEE5003
:10596000ED1029E0070E0C01C65D04E0BACCBCFCCA
:10597000BBCCBDFC0C01C7AF0BD0010EE66E100E08
:10598000E66EA6EC18F0E552E552B0EC00F013D04C
:105990000C01C78F0C01C7BD0ED00C01C78DA1EC47
:1059A00067F006C0C4FC07C0C5FC0F0E0C01C4277D
:1059B000000E0C01C5230E0EDBA096D091CC14F086
:1059C00092CC15F093CC16F094CC17F0142A000E5C
:1059D0001522000E1622000E1722170EDBCF18F02C
:1059E000180EDBCF19F01A6A1B6AD950130FE96E33
:1059F000DACFEAFFEE501826EE501922EE501A22A6
:105A0000EE501B221450181809E11550191806E120
:105A100016501A1803E117501B1800E165E10C013C
:105A2000912B000E9223932394230C01C651090A53
:105A300048E0010A21E00F0A0FE0010A01E04BD023
:105A40000C010C0EC66F010EE66E110EE66EA6EC92
:105A500018F0E552E55248D00C010B0EC66FA1ECD0
:105A600067F006C0C4FC07C0C5FC1F0E0C01C427AC
:105A7000000E0C01C52330D0D9500F0FE96EDACFDC
:105A8000EAFF0C018D51EE180CE10C018E51EE185D
:105A900008E10C018F51EE1804E10C019051EE1851
:105AA00000E10BE1E66A100EE66EA6EC18F0E55296
:105AB000E55215EC21F018D003D00C010A0EC66F88
:105AC0000BD0E66A100EE66EA6EC18F0E552E55231
